{
  "address": "0xc4eabA5e559615DAAd783652be593fb230c3EaA4",
  "abi": [
    {
      "inputs": [
        {
          "internalType": "address",
          "name": "implementation_",
          "type": "address"
        },
        {
          "internalType": "address",
          "name": "admin_",
          "type": "address"
        },
        {
          "internalType": "address",
          "name": "cnoteAddress_",
          "type": "address"
        },
        {
          "internalType": "address",
          "name": "noteAddress_",
          "type": "address"
        },
        {
          "internalType": "address",
          "name": "comptrollerAddress_",
          "type": "address"
        },
        {
          "internalType": "address",
          "name": "treasury_",
          "type": "address"
        }
      ],
      "stateMutability": "nonpayable",
      "type": "constructor"
    },
    {
      "inputs": [
        {
          "internalType": "address",
          "name": "treasury",
          "type": "address"
        },
        {
          "internalType": "uint256",
          "name": "amount",
          "type": "uint256"
        }
      ],
      "name": "SweepError",
      "type": "error"
    },
    {
      "anonymous": false,
      "inputs": [
        {
          "indexed": false,
          "internalType": "address",
          "name": "lendingMarketAddress",
          "type": "address"
        }
      ],
      "name": "AcctInit",
      "type": "event"
    },
    {
      "anonymous": false,
      "inputs": [
        {
          "indexed": false,
          "internalType": "uint256",
          "name": "amount",
          "type": "uint256"
        }
      ],
      "name": "AcctRedeemed",
      "type": "event"
    },
    {
      "anonymous": false,
      "inputs": [
        {
          "indexed": false,
          "internalType": "uint256",
          "name": "amount",
          "type": "uint256"
        },
        {
          "indexed": false,
          "internalType": "uint256",
          "name": "err",
          "type": "uint256"
        }
      ],
      "name": "AcctSupplied",
      "type": "event"
    },
    {
      "anonymous": false,
      "inputs": [
        {
          "indexed": false,
          "internalType": "address",
          "name": "oldAdmin",
          "type": "address"
        },
        {
          "indexed": false,
          "internalType": "address",
          "name": "admin",
          "type": "address"
        }
      ],
      "name": "NewAdmin",
      "type": "event"
    },
    {
      "anonymous": false,
      "inputs": [
        {
          "indexed": false,
          "internalType": "address",
          "name": "oldImplementation",
          "type": "address"
        },
        {
          "indexed": false,
          "internalType": "address",
          "name": "newImplementation",
          "type": "address"
        }
      ],
      "name": "NewImplementation",
      "type": "event"
    },
    {
      "anonymous": false,
      "inputs": [
        {
          "indexed": false,
          "internalType": "address",
          "name": "oldPendingAdmin",
          "type": "address"
        },
        {
          "indexed": false,
          "internalType": "address",
          "name": "newPendingAdmin",
          "type": "address"
        }
      ],
      "name": "NewPendingAdmin",
      "type": "event"
    },
    {
      "stateMutability": "payable",
      "type": "fallback"
    },
    {
      "inputs": [],
      "name": "_acceptAdmin",
      "outputs": [],
      "stateMutability": "nonpayable",
      "type": "function"
    },
    {
      "inputs": [
        {
          "internalType": "address",
          "name": "newPendingAdmin",
          "type": "address"
        }
      ],
      "name": "_setPendingAdmin",
      "outputs": [],
      "stateMutability": "nonpayable",
      "type": "function"
    },
    {
      "inputs": [],
      "name": "admin",
      "outputs": [
        {
          "internalType": "address",
          "name": "",
          "type": "address"
        }
      ],
      "stateMutability": "view",
      "type": "function"
    },
    {
      "inputs": [],
      "name": "cnote",
      "outputs": [
        {
          "internalType": "contract CNote",
          "name": "",
          "type": "address"
        }
      ],
      "stateMutability": "view",
      "type": "function"
    },
    {
      "inputs": [],
      "name": "comptroller",
      "outputs": [
        {
          "internalType": "contract ComptrollerInterface",
          "name": "",
          "type": "address"
        }
      ],
      "stateMutability": "view",
      "type": "function"
    },
    {
      "inputs": [
        {
          "internalType": "bytes",
          "name": "data",
          "type": "bytes"
        }
      ],
      "name": "delegateToImplementation",
      "outputs": [
        {
          "internalType": "bytes",
          "name": "",
          "type": "bytes"
        }
      ],
      "stateMutability": "nonpayable",
      "type": "function"
    },
    {
      "inputs": [
        {
          "internalType": "bytes",
          "name": "data",
          "type": "bytes"
        }
      ],
      "name": "delegateToViewImplementation",
      "outputs": [
        {
          "internalType": "bytes",
          "name": "",
          "type": "bytes"
        }
      ],
      "stateMutability": "view",
      "type": "function"
    },
    {
      "inputs": [],
      "name": "implementation",
      "outputs": [
        {
          "internalType": "address",
          "name": "",
          "type": "address"
        }
      ],
      "stateMutability": "view",
      "type": "function"
    },
    {
      "inputs": [],
      "name": "note",
      "outputs": [
        {
          "internalType": "contract Note",
          "name": "",
          "type": "address"
        }
      ],
      "stateMutability": "view",
      "type": "function"
    },
    {
      "inputs": [],
      "name": "pendingAdmin",
      "outputs": [
        {
          "internalType": "address",
          "name": "",
          "type": "address"
        }
      ],
      "stateMutability": "view",
      "type": "function"
    },
    {
      "inputs": [
        {
          "internalType": "uint256",
          "name": "amount",
          "type": "uint256"
        }
      ],
      "name": "redeemMarket",
      "outputs": [
        {
          "internalType": "uint256",
          "name": "",
          "type": "uint256"
        }
      ],
      "stateMutability": "nonpayable",
      "type": "function"
    },
    {
      "inputs": [
        {
          "internalType": "address",
          "name": "implementation_",
          "type": "address"
        }
      ],
      "name": "setImplementation",
      "outputs": [],
      "stateMutability": "nonpayable",
      "type": "function"
    },
    {
      "inputs": [
        {
          "internalType": "uint256",
          "name": "amount",
          "type": "uint256"
        }
      ],
      "name": "supplyMarket",
      "outputs": [
        {
          "internalType": "uint256",
          "name": "",
          "type": "uint256"
        }
      ],
      "stateMutability": "nonpayable",
      "type": "function"
    },
    {
      "inputs": [],
      "name": "sweepInterest",
      "outputs": [],
      "stateMutability": "nonpayable",
      "type": "function"
    },
    {
      "inputs": [],
      "name": "treasury",
      "outputs": [
        {
          "internalType": "address",
          "name": "",
          "type": "address"
        }
      ],
      "stateMutability": "view",
      "type": "function"
    }
  ],
  "transactionHash": "0xba5e5ae6f72c00e28c50547bbe64a1d4689401c2e05777792c8bc01d76a7018e",
  "args": [
    "0x5c7DED7A3B8ac7f0AFCD975aC561851212880E63",
    "0x2fA8e44e9A3D833019FCc52D62B4dD05125cA1b1",
    "0x8c1D2b6b650a85aBC1c033580e88DD5d9D9aC40A",
    "0xD354EFE7F59A727BD988252726D86D6dd8d19547",
    "0x3fEb7411f5cb71Ff8cc5E0b1f298866327a15BF1",
    "0x2f744cfAcef034775C96ba009229cA3F8579C7C7"
  ],
  "numDeployments": 1,
  "solcInputHash": "ed32bda1e8ee7c1e01355cdbba45d1b0",
  "bytecode": "0x60806040523480156200001157600080fd5b5060405162000f3638038062000f368339810160408190526200003491620002f2565b6001600160a01b0385166200004857600080fd5b600180546001600160a01b031916331790556040516001600160a01b0382811660248301528581166044830152848116606483015283166084820152620000c290879060a40160408051601f198184030181529190526020810180516001600160e01b03908116637c643b2f60e11b17909152620000fb16565b50620000ce866200017a565b5050600180546001600160a01b0319166001600160a01b03949094169390931790925550620003b1915050565b6060600080846001600160a01b0316846040516200011a919062000373565b600060405180830381855af49150503d806000811462000157576040519150601f19603f3d011682016040523d82523d6000602084013e6200015c565b606091505b5091509150600082141562000172573d60208201fd5b949350505050565b6001546001600160a01b03163314620001ef5760405162461bcd60e51b8152602060048201526033602482015260008051602062000f1683398151915260448201527f6e746174696f6e3a2061646d696e206f6e6c790000000000000000000000000060648201526084015b60405180910390fd5b6001600160a01b0381166200026c5760405162461bcd60e51b8152602060048201526047602482015260008051602062000f1683398151915260448201527f6e746174696f6e3a20696e76616c696420696d706c656d656e746174696f6e206064820152666164647265737360c81b608482015260a401620001e6565b600254604080516001600160a01b03928316815291831660208301527fd604de94d45953f9138079ec1b82d533cb2160c906d1076d1f7ed54befbca97a910160405180910390a1600280546001600160a01b0319166001600160a01b0392909216919091179055565b80516001600160a01b0381168114620002ed57600080fd5b919050565b60008060008060008060c087890312156200030c57600080fd5b6200031787620002d5565b95506200032760208801620002d5565b94506200033760408801620002d5565b93506200034760608801620002d5565b92506200035760808801620002d5565b91506200036760a08801620002d5565b90509295509295509295565b6000825160005b818110156200039657602081860181015185830152016200037a565b81811115620003a6576000828501525b509190910192915050565b610b5580620003c16000396000f3fe6080604052600436106100e85760003560e01c806361d027b31161008a578063b972aa0511610059578063b972aa051461036f578063d784d4261461038f578063e9c714f2146103af578063f851a440146103c4576100e8565b806361d027b3146102e1578063778bc487146103015780638003c7d31461032f578063b71d1a0c1461034f576100e8565b80633342f689116100c65780633342f6891461026a5780634487152f146102815780635c60da1b146102a15780635fe3b567146102c1576100e8565b80630933c1ed146101dc578063267822471461021257806326d111f51461024a575b34156101615760405162461bcd60e51b815260206004820152603b60248201527f4163636f756e74616e7444656c656761746f723a66616c6c6261636b3a20636160448201527f6e6e6f742073656e642076616c756520746f2066616c6c6261636b000000000060648201526084015b60405180910390fd5b6002546040516000916001600160a01b03169061018190839036906108cf565b600060405180830381855af49150503d80600081146101bc576040519150601f19603f3d011682016040523d82523d6000602084013e6101c1565b606091505b505090506040513d6000823e8180156101d8573d82f35b3d82fd5b3480156101e857600080fd5b506101fc6101f736600461094e565b6103e4565b60405161020991906109fe565b60405180910390f35b34801561021e57600080fd5b50600054610232906001600160a01b031681565b6040516001600160a01b039091168152602001610209565b34801561025657600080fd5b50600354610232906001600160a01b031681565b34801561027657600080fd5b5061027f610403565b005b34801561028d57600080fd5b506101fc61029c36600461094e565b610438565b3480156102ad57600080fd5b50600254610232906001600160a01b031681565b3480156102cd57600080fd5b50600554610232906001600160a01b031681565b3480156102ed57600080fd5b50600654610232906001600160a01b031681565b34801561030d57600080fd5b5061032161031c366004610a31565b6104fe565b604051908152602001610209565b34801561033b57600080fd5b5061032161034a366004610a31565b610563565b34801561035b57600080fd5b5061027f61036a366004610a4a565b6105ab565b34801561037b57600080fd5b50600454610232906001600160a01b031681565b34801561039b57600080fd5b5061027f6103aa366004610a4a565b610651565b3480156103bb57600080fd5b5061027f6107bc565b3480156103d057600080fd5b50600154610232906001600160a01b031681565b6002546060906103fd906001600160a01b03168361085d565b92915050565b6040805160048152602481019091526020810180516001600160e01b0316633342f68960e01b179052610435906103e4565b50565b6060600080306001600160a01b03168460405160240161045891906109fe565b60408051601f198184030181529181526020820180516001600160e01b0316630933c1ed60e01b1790525161048d9190610a73565b600060405180830381855afa9150503d80600081146104c8576040519150601f19603f3d011682016040523d82523d6000602084013e6104cd565b606091505b509150915060008214156104e2573d60208201fd5b808060200190518101906104f69190610a8f565b949350505050565b6000806105468360405160240161051791815260200190565b60408051601f198184030181529190526020810180516001600160e01b031663778bc48760e01b1790526103e4565b90508080602001905181019061055c9190610b06565b9392505050565b6000806105468360405160240161057c91815260200190565b60408051601f198184030181529190526020810180516001600160e01b0316638003c7d360e01b1790526103e4565b6001546001600160a01b031633146106055760405162461bcd60e51b815260206004820152601f60248201527f4163636f756e74616e7444656c656761746f723a3a61646d696e206f6e6c79006044820152606401610158565b6040516001600160a01b038216602482015261064d9060440160408051601f198184030181529190526020810180516001600160e01b0316632dc7468360e21b1790526103e4565b5050565b6001546001600160a01b031633146106c75760405162461bcd60e51b815260206004820152603360248201527f4163636f756e74616e7444656c656761746f723a3a5f736574496d706c656d656044820152726e746174696f6e3a2061646d696e206f6e6c7960681b6064820152608401610158565b6001600160a01b0381166107535760405162461bcd60e51b815260206004820152604760248201527f4163636f756e74616e7444656c656761746f723a3a5f736574496d706c656d6560448201527f6e746174696f6e3a20696e76616c696420696d706c656d656e746174696f6e206064820152666164647265737360c81b608482015260a401610158565b600254604080516001600160a01b03928316815291831660208301527fd604de94d45953f9138079ec1b82d533cb2160c906d1076d1f7ed54befbca97a910160405180910390a1600280546001600160a01b0319166001600160a01b0392909216919091179055565b6000546001600160a01b0316331461082b5760405162461bcd60e51b815260206004820152602c60248201527f4163636f756e74616e7444656c656761746f723a3a73656e646572206e6f742060448201526b3832b73234b733a0b236b4b760a11b6064820152608401610158565b6040805160048152602481019091526020810180516001600160e01b03166374e38a7960e11b179052610435906103e4565b6060600080846001600160a01b03168460405161087a9190610a73565b600060405180830381855af49150503d80600081146108b5576040519150601f19603f3d011682016040523d82523d6000602084013e6108ba565b606091505b509150915060008214156104f6573d60208201fd5b8183823760009101908152919050565b634e487b7160e01b600052604160045260246000fd5b604051601f8201601f1916810167ffffffffffffffff8111828210171561091e5761091e6108df565b604052919050565b600067ffffffffffffffff821115610940576109406108df565b50601f01601f191660200190565b60006020828403121561096057600080fd5b813567ffffffffffffffff81111561097757600080fd5b8201601f8101841361098857600080fd5b803561099b61099682610926565b6108f5565b8181528560208385010111156109b057600080fd5b81602084016020830137600091810160200191909152949350505050565b60005b838110156109e95781810151838201526020016109d1565b838111156109f8576000848401525b50505050565b6020815260008251806020840152610a1d8160408501602087016109ce565b601f01601f19169190910160400192915050565b600060208284031215610a4357600080fd5b5035919050565b600060208284031215610a5c57600080fd5b81356001600160a01b038116811461055c57600080fd5b60008251610a858184602087016109ce565b9190910192915050565b600060208284031215610aa157600080fd5b815167ffffffffffffffff811115610ab857600080fd5b8201601f81018413610ac957600080fd5b8051610ad761099682610926565b818152856020838501011115610aec57600080fd5b610afd8260208301602086016109ce565b95945050505050565b600060208284031215610b1857600080fd5b505191905056fea2646970667358221220dbea95c81ca33e34ae31b11e0aa173d4a11121f6c453fb09dbe55dec4a8c68cf64736f6c634300080b00334163636f756e74616e7444656c656761746f723a3a5f736574496d706c656d65",
  "devdoc": {
    "kind": "dev",
    "methods": {
      "constructor": {
        "params": {
          "admin_": "admin address (Timelock)",
          "cnoteAddress_": "lending market address (CNote)",
          "comptrollerAddress_": ", address of Comptroller Delegator(Unitroller)",
          "implementation_": "implementation address (the AccountantDelegate)",
          "noteAddress_": "note address (note erc20 contract)",
          "treasury_": "treasury address (TreasuryDelegator)"
        }
      },
      "delegateToImplementation(bytes)": {
        "details": "It returns to the external caller whatever the implementation returns or forwards reverts",
        "params": {
          "data": "The raw data to delegatecall"
        },
        "returns": {
          "_0": "The returned bytes from the delegatecall"
        }
      },
      "delegateToViewImplementation(bytes)": {
        "details": "It returns to the external caller whatever the implementation returns or forwards reverts  There are an additional 2 prefix uints from the wrapper returndata, which we ignore since we make an extra hop.",
        "params": {
          "data": "The raw data to delegatecall"
        },
        "returns": {
          "_0": "The returned bytes from the delegatecall"
        }
      },
      "redeemMarket(uint256)": {
        "params": {
          "amount": "The address of the ERC-20 token to sweep"
        }
      },
      "setImplementation(address)": {
        "params": {
          "implementation_": "The address of the new implementation for delegation"
        }
      },
      "supplyMarket(uint256)": {
        "params": {
          "amount": "amount of Note Accountant is supplying to market"
        }
      }
    },
    "version": 1
  },
  "userdoc": {
    "kind": "user",
    "methods": {
      "delegateToImplementation(bytes)": {
        "notice": "Delegates execution to the implementation contract"
      },
      "delegateToViewImplementation(bytes)": {
        "notice": "Delegates execution to an implementation contract"
      },
      "redeemMarket(uint256)": {
        "notice": "A public function to sweep accidental ERC-20 transfers to this contract. Tokens are sent to admin (timelock)"
      },
      "setImplementation(address)": {
        "notice": "Called by the admin to update the implementation of the delegator"
      },
      "supplyMarket(uint256)": {
        "notice": "A public function to sweep accidental ERC-20 transfers to this contract. Tokens are sent to admin (timelock)"
      },
      "sweepInterest()": {
        "notice": "A public function to sweep accidental ERC-20 transfers to this contract. Tokens are sent to admin (timelock)"
      }
    },
    "version": 1
  },
  "storageLayout": {
    "storage": [
      {
        "astId": 749,
        "contract": "src/Accountant/AccountantDelegator.sol:AccountantDelegator",
        "label": "pendingAdmin",
        "offset": 0,
        "slot": "0",
        "type": "t_address"
      },
      {
        "astId": 751,
        "contract": "src/Accountant/AccountantDelegator.sol:AccountantDelegator",
        "label": "admin",
        "offset": 0,
        "slot": "1",
        "type": "t_address"
      },
      {
        "astId": 753,
        "contract": "src/Accountant/AccountantDelegator.sol:AccountantDelegator",
        "label": "implementation",
        "offset": 0,
        "slot": "2",
        "type": "t_address"
      },
      {
        "astId": 791,
        "contract": "src/Accountant/AccountantDelegator.sol:AccountantDelegator",
        "label": "note",
        "offset": 0,
        "slot": "3",
        "type": "t_contract(Note)20592"
      },
      {
        "astId": 794,
        "contract": "src/Accountant/AccountantDelegator.sol:AccountantDelegator",
        "label": "cnote",
        "offset": 0,
        "slot": "4",
        "type": "t_contract(CNote)3889"
      },
      {
        "astId": 797,
        "contract": "src/Accountant/AccountantDelegator.sol:AccountantDelegator",
        "label": "comptroller",
        "offset": 0,
        "slot": "5",
        "type": "t_contract(ComptrollerInterface)14620"
      },
      {
        "astId": 799,
        "contract": "src/Accountant/AccountantDelegator.sol:AccountantDelegator",
        "label": "treasury",
        "offset": 0,
        "slot": "6",
        "type": "t_address"
      }
    ],
    "types": {
      "t_address": {
        "encoding": "inplace",
        "label": "address",
        "numberOfBytes": "20"
      },
      "t_contract(CNote)3889": {
        "encoding": "inplace",
        "label": "contract CNote",
        "numberOfBytes": "20"
      },
      "t_contract(ComptrollerInterface)14620": {
        "encoding": "inplace",
        "label": "contract ComptrollerInterface",
        "numberOfBytes": "20"
      },
      "t_contract(Note)20592": {
        "encoding": "inplace",
        "label": "contract Note",
        "numberOfBytes": "20"
      }
    }
  }
}