{
  "address": "0x8fa61F21Fb514d2914a48B29810900Da876E295b",
  "abi": [
    {
      "inputs": [
        {
          "internalType": "address",
          "name": "_factory",
          "type": "address"
        },
        {
          "internalType": "address",
          "name": "_wcanto",
          "type": "address"
        },
        {
          "internalType": "address",
          "name": "note_",
          "type": "address"
        },
        {
          "internalType": "address",
          "name": "Comptroller_",
          "type": "address"
        }
      ],
      "stateMutability": "nonpayable",
      "type": "constructor"
    },
    {
      "inputs": [
        {
          "internalType": "address",
          "name": "sender",
          "type": "address"
        },
        {
          "internalType": "address",
          "name": "admin",
          "type": "address"
        }
      ],
      "name": "SenderNotAdmin",
      "type": "error"
    },
    {
      "inputs": [],
      "name": "Comptroller",
      "outputs": [
        {
          "internalType": "address",
          "name": "",
          "type": "address"
        }
      ],
      "stateMutability": "view",
      "type": "function"
    },
    {
      "inputs": [
        {
          "internalType": "uint256[]",
          "name": "amounts",
          "type": "uint256[]"
        },
        {
          "components": [
            {
              "internalType": "address",
              "name": "from",
              "type": "address"
            },
            {
              "internalType": "address",
              "name": "to",
              "type": "address"
            },
            {
              "internalType": "bool",
              "name": "stable",
              "type": "bool"
            }
          ],
          "internalType": "struct BaseV1Router01.route[]",
          "name": "routes",
          "type": "tuple[]"
        },
        {
          "internalType": "address",
          "name": "to",
          "type": "address"
        },
        {
          "internalType": "uint256",
          "name": "deadline",
          "type": "uint256"
        }
      ],
      "name": "UNSAFE_swapExactTokensForTokens",
      "outputs": [
        {
          "internalType": "uint256[]",
          "name": "",
          "type": "uint256[]"
        }
      ],
      "stateMutability": "nonpayable",
      "type": "function"
    },
    {
      "inputs": [
        {
          "internalType": "address",
          "name": "tokenA",
          "type": "address"
        },
        {
          "internalType": "address",
          "name": "tokenB",
          "type": "address"
        },
        {
          "internalType": "bool",
          "name": "stable",
          "type": "bool"
        },
        {
          "internalType": "uint256",
          "name": "amountADesired",
          "type": "uint256"
        },
        {
          "internalType": "uint256",
          "name": "amountBDesired",
          "type": "uint256"
        },
        {
          "internalType": "uint256",
          "name": "amountAMin",
          "type": "uint256"
        },
        {
          "internalType": "uint256",
          "name": "amountBMin",
          "type": "uint256"
        },
        {
          "internalType": "address",
          "name": "to",
          "type": "address"
        },
        {
          "internalType": "uint256",
          "name": "deadline",
          "type": "uint256"
        }
      ],
      "name": "addLiquidity",
      "outputs": [
        {
          "internalType": "uint256",
          "name": "amountA",
          "type": "uint256"
        },
        {
          "internalType": "uint256",
          "name": "amountB",
          "type": "uint256"
        },
        {
          "internalType": "uint256",
          "name": "liquidity",
          "type": "uint256"
        }
      ],
      "stateMutability": "nonpayable",
      "type": "function"
    },
    {
      "inputs": [
        {
          "internalType": "address",
          "name": "token",
          "type": "address"
        },
        {
          "internalType": "bool",
          "name": "stable",
          "type": "bool"
        },
        {
          "internalType": "uint256",
          "name": "amountTokenDesired",
          "type": "uint256"
        },
        {
          "internalType": "uint256",
          "name": "amountTokenMin",
          "type": "uint256"
        },
        {
          "internalType": "uint256",
          "name": "amountCANTOMin",
          "type": "uint256"
        },
        {
          "internalType": "address",
          "name": "to",
          "type": "address"
        },
        {
          "internalType": "uint256",
          "name": "deadline",
          "type": "uint256"
        }
      ],
      "name": "addLiquidityCANTO",
      "outputs": [
        {
          "internalType": "uint256",
          "name": "amountToken",
          "type": "uint256"
        },
        {
          "internalType": "uint256",
          "name": "amountCANTO",
          "type": "uint256"
        },
        {
          "internalType": "uint256",
          "name": "liquidity",
          "type": "uint256"
        }
      ],
      "stateMutability": "payable",
      "type": "function"
    },
    {
      "inputs": [],
      "name": "admin",
      "outputs": [
        {
          "internalType": "address",
          "name": "",
          "type": "address"
        }
      ],
      "stateMutability": "view",
      "type": "function"
    },
    {
      "inputs": [],
      "name": "factory",
      "outputs": [
        {
          "internalType": "address",
          "name": "",
          "type": "address"
        }
      ],
      "stateMutability": "view",
      "type": "function"
    },
    {
      "inputs": [
        {
          "internalType": "uint256",
          "name": "amountIn",
          "type": "uint256"
        },
        {
          "internalType": "address",
          "name": "tokenIn",
          "type": "address"
        },
        {
          "internalType": "address",
          "name": "tokenOut",
          "type": "address"
        }
      ],
      "name": "getAmountOut",
      "outputs": [
        {
          "internalType": "uint256",
          "name": "amount",
          "type": "uint256"
        },
        {
          "internalType": "bool",
          "name": "stable",
          "type": "bool"
        }
      ],
      "stateMutability": "view",
      "type": "function"
    },
    {
      "inputs": [
        {
          "internalType": "uint256",
          "name": "amountIn",
          "type": "uint256"
        },
        {
          "components": [
            {
              "internalType": "address",
              "name": "from",
              "type": "address"
            },
            {
              "internalType": "address",
              "name": "to",
              "type": "address"
            },
            {
              "internalType": "bool",
              "name": "stable",
              "type": "bool"
            }
          ],
          "internalType": "struct BaseV1Router01.route[]",
          "name": "routes",
          "type": "tuple[]"
        }
      ],
      "name": "getAmountsOut",
      "outputs": [
        {
          "internalType": "uint256[]",
          "name": "amounts",
          "type": "uint256[]"
        }
      ],
      "stateMutability": "view",
      "type": "function"
    },
    {
      "inputs": [
        {
          "internalType": "address",
          "name": "tokenA",
          "type": "address"
        },
        {
          "internalType": "address",
          "name": "tokenB",
          "type": "address"
        },
        {
          "internalType": "bool",
          "name": "stable",
          "type": "bool"
        }
      ],
      "name": "getReserves",
      "outputs": [
        {
          "internalType": "uint256",
          "name": "reserveA",
          "type": "uint256"
        },
        {
          "internalType": "uint256",
          "name": "reserveB",
          "type": "uint256"
        }
      ],
      "stateMutability": "view",
      "type": "function"
    },
    {
      "inputs": [
        {
          "internalType": "contract CToken",
          "name": "ctoken",
          "type": "address"
        }
      ],
      "name": "getUnderlyingPrice",
      "outputs": [
        {
          "internalType": "uint256",
          "name": "",
          "type": "uint256"
        }
      ],
      "stateMutability": "view",
      "type": "function"
    },
    {
      "inputs": [
        {
          "internalType": "address",
          "name": "pair",
          "type": "address"
        }
      ],
      "name": "isPair",
      "outputs": [
        {
          "internalType": "bool",
          "name": "",
          "type": "bool"
        }
      ],
      "stateMutability": "view",
      "type": "function"
    },
    {
      "inputs": [],
      "name": "isPriceOracle",
      "outputs": [
        {
          "internalType": "bool",
          "name": "",
          "type": "bool"
        }
      ],
      "stateMutability": "view",
      "type": "function"
    },
    {
      "inputs": [
        {
          "internalType": "address",
          "name": "",
          "type": "address"
        }
      ],
      "name": "isStable",
      "outputs": [
        {
          "internalType": "bool",
          "name": "",
          "type": "bool"
        }
      ],
      "stateMutability": "view",
      "type": "function"
    },
    {
      "inputs": [],
      "name": "note",
      "outputs": [
        {
          "internalType": "address",
          "name": "",
          "type": "address"
        }
      ],
      "stateMutability": "view",
      "type": "function"
    },
    {
      "inputs": [
        {
          "internalType": "address",
          "name": "tokenA",
          "type": "address"
        },
        {
          "internalType": "address",
          "name": "tokenB",
          "type": "address"
        },
        {
          "internalType": "bool",
          "name": "stable",
          "type": "bool"
        }
      ],
      "name": "pairFor",
      "outputs": [
        {
          "internalType": "address",
          "name": "pair",
          "type": "address"
        }
      ],
      "stateMutability": "view",
      "type": "function"
    },
    {
      "inputs": [
        {
          "internalType": "address",
          "name": "tokenA",
          "type": "address"
        },
        {
          "internalType": "address",
          "name": "tokenB",
          "type": "address"
        },
        {
          "internalType": "bool",
          "name": "stable",
          "type": "bool"
        },
        {
          "internalType": "uint256",
          "name": "amountADesired",
          "type": "uint256"
        },
        {
          "internalType": "uint256",
          "name": "amountBDesired",
          "type": "uint256"
        }
      ],
      "name": "quoteAddLiquidity",
      "outputs": [
        {
          "internalType": "uint256",
          "name": "amountA",
          "type": "uint256"
        },
        {
          "internalType": "uint256",
          "name": "amountB",
          "type": "uint256"
        },
        {
          "internalType": "uint256",
          "name": "liquidity",
          "type": "uint256"
        }
      ],
      "stateMutability": "view",
      "type": "function"
    },
    {
      "inputs": [
        {
          "internalType": "address",
          "name": "tokenA",
          "type": "address"
        },
        {
          "internalType": "address",
          "name": "tokenB",
          "type": "address"
        },
        {
          "internalType": "bool",
          "name": "stable",
          "type": "bool"
        },
        {
          "internalType": "uint256",
          "name": "liquidity",
          "type": "uint256"
        }
      ],
      "name": "quoteRemoveLiquidity",
      "outputs": [
        {
          "internalType": "uint256",
          "name": "amountA",
          "type": "uint256"
        },
        {
          "internalType": "uint256",
          "name": "amountB",
          "type": "uint256"
        }
      ],
      "stateMutability": "view",
      "type": "function"
    },
    {
      "inputs": [
        {
          "internalType": "address",
          "name": "tokenA",
          "type": "address"
        },
        {
          "internalType": "address",
          "name": "tokenB",
          "type": "address"
        },
        {
          "internalType": "bool",
          "name": "stable",
          "type": "bool"
        },
        {
          "internalType": "uint256",
          "name": "liquidity",
          "type": "uint256"
        },
        {
          "internalType": "uint256",
          "name": "amountAMin",
          "type": "uint256"
        },
        {
          "internalType": "uint256",
          "name": "amountBMin",
          "type": "uint256"
        },
        {
          "internalType": "address",
          "name": "to",
          "type": "address"
        },
        {
          "internalType": "uint256",
          "name": "deadline",
          "type": "uint256"
        }
      ],
      "name": "removeLiquidity",
      "outputs": [
        {
          "internalType": "uint256",
          "name": "amountA",
          "type": "uint256"
        },
        {
          "internalType": "uint256",
          "name": "amountB",
          "type": "uint256"
        }
      ],
      "stateMutability": "nonpayable",
      "type": "function"
    },
    {
      "inputs": [
        {
          "internalType": "address",
          "name": "token",
          "type": "address"
        },
        {
          "internalType": "bool",
          "name": "stable",
          "type": "bool"
        },
        {
          "internalType": "uint256",
          "name": "liquidity",
          "type": "uint256"
        },
        {
          "internalType": "uint256",
          "name": "amountTokenMin",
          "type": "uint256"
        },
        {
          "internalType": "uint256",
          "name": "amountCANTOMin",
          "type": "uint256"
        },
        {
          "internalType": "address",
          "name": "to",
          "type": "address"
        },
        {
          "internalType": "uint256",
          "name": "deadline",
          "type": "uint256"
        }
      ],
      "name": "removeLiquidityCANTO",
      "outputs": [
        {
          "internalType": "uint256",
          "name": "amountToken",
          "type": "uint256"
        },
        {
          "internalType": "uint256",
          "name": "amountCANTO",
          "type": "uint256"
        }
      ],
      "stateMutability": "nonpayable",
      "type": "function"
    },
    {
      "inputs": [
        {
          "internalType": "address",
          "name": "token",
          "type": "address"
        },
        {
          "internalType": "bool",
          "name": "stable",
          "type": "bool"
        },
        {
          "internalType": "uint256",
          "name": "liquidity",
          "type": "uint256"
        },
        {
          "internalType": "uint256",
          "name": "amountTokenMin",
          "type": "uint256"
        },
        {
          "internalType": "uint256",
          "name": "amountCANTOMin",
          "type": "uint256"
        },
        {
          "internalType": "address",
          "name": "to",
          "type": "address"
        },
        {
          "internalType": "uint256",
          "name": "deadline",
          "type": "uint256"
        },
        {
          "internalType": "bool",
          "name": "approveMax",
          "type": "bool"
        },
        {
          "internalType": "uint8",
          "name": "v",
          "type": "uint8"
        },
        {
          "internalType": "bytes32",
          "name": "r",
          "type": "bytes32"
        },
        {
          "internalType": "bytes32",
          "name": "s",
          "type": "bytes32"
        }
      ],
      "name": "removeLiquidityCANTOWithPermit",
      "outputs": [
        {
          "internalType": "uint256",
          "name": "amountToken",
          "type": "uint256"
        },
        {
          "internalType": "uint256",
          "name": "amountCANTO",
          "type": "uint256"
        }
      ],
      "stateMutability": "nonpayable",
      "type": "function"
    },
    {
      "inputs": [
        {
          "internalType": "address",
          "name": "tokenA",
          "type": "address"
        },
        {
          "internalType": "address",
          "name": "tokenB",
          "type": "address"
        },
        {
          "internalType": "bool",
          "name": "stable",
          "type": "bool"
        },
        {
          "internalType": "uint256",
          "name": "liquidity",
          "type": "uint256"
        },
        {
          "internalType": "uint256",
          "name": "amountAMin",
          "type": "uint256"
        },
        {
          "internalType": "uint256",
          "name": "amountBMin",
          "type": "uint256"
        },
        {
          "internalType": "address",
          "name": "to",
          "type": "address"
        },
        {
          "internalType": "uint256",
          "name": "deadline",
          "type": "uint256"
        },
        {
          "internalType": "bool",
          "name": "approveMax",
          "type": "bool"
        },
        {
          "internalType": "uint8",
          "name": "v",
          "type": "uint8"
        },
        {
          "internalType": "bytes32",
          "name": "r",
          "type": "bytes32"
        },
        {
          "internalType": "bytes32",
          "name": "s",
          "type": "bytes32"
        }
      ],
      "name": "removeLiquidityWithPermit",
      "outputs": [
        {
          "internalType": "uint256",
          "name": "amountA",
          "type": "uint256"
        },
        {
          "internalType": "uint256",
          "name": "amountB",
          "type": "uint256"
        }
      ],
      "stateMutability": "nonpayable",
      "type": "function"
    },
    {
      "inputs": [
        {
          "internalType": "address",
          "name": "admin_",
          "type": "address"
        }
      ],
      "name": "setAdmin",
      "outputs": [],
      "stateMutability": "nonpayable",
      "type": "function"
    },
    {
      "inputs": [
        {
          "internalType": "address",
          "name": "underlying",
          "type": "address"
        }
      ],
      "name": "setStable",
      "outputs": [
        {
          "internalType": "uint256",
          "name": "",
          "type": "uint256"
        }
      ],
      "stateMutability": "nonpayable",
      "type": "function"
    },
    {
      "inputs": [
        {
          "internalType": "address",
          "name": "tokenA",
          "type": "address"
        },
        {
          "internalType": "address",
          "name": "tokenB",
          "type": "address"
        }
      ],
      "name": "sortTokens",
      "outputs": [
        {
          "internalType": "address",
          "name": "token0",
          "type": "address"
        },
        {
          "internalType": "address",
          "name": "token1",
          "type": "address"
        }
      ],
      "stateMutability": "pure",
      "type": "function"
    },
    {
      "inputs": [
        {
          "internalType": "uint256",
          "name": "amountOutMin",
          "type": "uint256"
        },
        {
          "components": [
            {
              "internalType": "address",
              "name": "from",
              "type": "address"
            },
            {
              "internalType": "address",
              "name": "to",
              "type": "address"
            },
            {
              "internalType": "bool",
              "name": "stable",
              "type": "bool"
            }
          ],
          "internalType": "struct BaseV1Router01.route[]",
          "name": "routes",
          "type": "tuple[]"
        },
        {
          "internalType": "address",
          "name": "to",
          "type": "address"
        },
        {
          "internalType": "uint256",
          "name": "deadline",
          "type": "uint256"
        }
      ],
      "name": "swapExactCANTOForTokens",
      "outputs": [
        {
          "internalType": "uint256[]",
          "name": "amounts",
          "type": "uint256[]"
        }
      ],
      "stateMutability": "payable",
      "type": "function"
    },
    {
      "inputs": [
        {
          "internalType": "uint256",
          "name": "amountIn",
          "type": "uint256"
        },
        {
          "internalType": "uint256",
          "name": "amountOutMin",
          "type": "uint256"
        },
        {
          "components": [
            {
              "internalType": "address",
              "name": "from",
              "type": "address"
            },
            {
              "internalType": "address",
              "name": "to",
              "type": "address"
            },
            {
              "internalType": "bool",
              "name": "stable",
              "type": "bool"
            }
          ],
          "internalType": "struct BaseV1Router01.route[]",
          "name": "routes",
          "type": "tuple[]"
        },
        {
          "internalType": "address",
          "name": "to",
          "type": "address"
        },
        {
          "internalType": "uint256",
          "name": "deadline",
          "type": "uint256"
        }
      ],
      "name": "swapExactTokensForCANTO",
      "outputs": [
        {
          "internalType": "uint256[]",
          "name": "amounts",
          "type": "uint256[]"
        }
      ],
      "stateMutability": "nonpayable",
      "type": "function"
    },
    {
      "inputs": [
        {
          "internalType": "uint256",
          "name": "amountIn",
          "type": "uint256"
        },
        {
          "internalType": "uint256",
          "name": "amountOutMin",
          "type": "uint256"
        },
        {
          "components": [
            {
              "internalType": "address",
              "name": "from",
              "type": "address"
            },
            {
              "internalType": "address",
              "name": "to",
              "type": "address"
            },
            {
              "internalType": "bool",
              "name": "stable",
              "type": "bool"
            }
          ],
          "internalType": "struct BaseV1Router01.route[]",
          "name": "routes",
          "type": "tuple[]"
        },
        {
          "internalType": "address",
          "name": "to",
          "type": "address"
        },
        {
          "internalType": "uint256",
          "name": "deadline",
          "type": "uint256"
        }
      ],
      "name": "swapExactTokensForTokens",
      "outputs": [
        {
          "internalType": "uint256[]",
          "name": "amounts",
          "type": "uint256[]"
        }
      ],
      "stateMutability": "nonpayable",
      "type": "function"
    },
    {
      "inputs": [
        {
          "internalType": "uint256",
          "name": "amountIn",
          "type": "uint256"
        },
        {
          "internalType": "uint256",
          "name": "amountOutMin",
          "type": "uint256"
        },
        {
          "internalType": "address",
          "name": "tokenFrom",
          "type": "address"
        },
        {
          "internalType": "address",
          "name": "tokenTo",
          "type": "address"
        },
        {
          "internalType": "bool",
          "name": "stable",
          "type": "bool"
        },
        {
          "internalType": "address",
          "name": "to",
          "type": "address"
        },
        {
          "internalType": "uint256",
          "name": "deadline",
          "type": "uint256"
        }
      ],
      "name": "swapExactTokensForTokensSimple",
      "outputs": [
        {
          "internalType": "uint256[]",
          "name": "amounts",
          "type": "uint256[]"
        }
      ],
      "stateMutability": "nonpayable",
      "type": "function"
    },
    {
      "inputs": [],
      "name": "wcanto",
      "outputs": [
        {
          "internalType": "contract IWCANTO",
          "name": "",
          "type": "address"
        }
      ],
      "stateMutability": "view",
      "type": "function"
    },
    {
      "stateMutability": "payable",
      "type": "receive"
    }
  ],
  "transactionHash": "0xeeee09a86703019772086c806f97af7c835d966b57f75b81d68caf6a3ca780a7",
  "args": [
    "0xE007cAc018C8bFFc70dFD0E8f6C24b2E7CFcefB9",
    "0x826551890Dc65655a0Aceca109aB11AbDbD7a07B",
    "0xD354EFE7F59A727BD988252726D86D6dd8d19547",
    "0x3fEb7411f5cb71Ff8cc5E0b1f298866327a15BF1"
  ],
  "numDeployments": 1,
  "solcInputHash": "ed32bda1e8ee7c1e01355cdbba45d1b0",
  "bytecode": "0x6101206040523480156200001257600080fd5b5060405162004efa38038062004efa8339810160408190526200003591620000f8565b6001600160a01b03841660c081905260408051631355724960e31b81529051639aab9248916004808201926020929091908290030181865afa15801562000080573d6000803e3d6000fd5b505050506040513d601f19601f82011682018060405250810190620000a6919062000155565b610100526001600160a01b0392831660e0529082166080521660a05250600080546001600160a01b031916331790556200016f565b80516001600160a01b0381168114620000f357600080fd5b919050565b600080600080608085870312156200010f57600080fd5b6200011a85620000db565b93506200012a60208601620000db565b92506200013a60408601620000db565b91506200014a60608601620000db565b905092959194509250565b6000602082840312156200016857600080fd5b5051919050565b60805160a05160c05160e05161010051614c666200029460003960006115370152600081816101d6015281816104c2015281816106cc0152818161091801528181610a1c01528181610b2f01528181610bbd01528181610f3301528181610f6901528181610f9e015281816110330152818161212501528181612175015281816122660152818161258a015281816125b00152818161286e0152818161379c01528181613ae30152613b3501526000818161058601528181611355015281816114fc015281816117c9015281816118dd01528181611cd401528181611e480152818161235601528181612ceb0152612d8c015260008181610354015281816126b801526127ae0152600081816102e801528181613181015261348f0152614c666000f3fe6080604052600436106101c65760003560e01c8063704b6c02116100f7578063c45a015511610095578063e5e31b1311610064578063e5e31b1314610616578063f41766d814610636578063f851a44014610656578063fc57d4df1461067657600080fd5b8063c45a015514610574578063c79db9d7146105a8578063dba71376146105c8578063dd54e2a4146105f657600080fd5b80639185f6ec116100d15780639185f6ec146104e45780639881fcb41461051457806398a0fb3c14610534578063a32b1fcd1461055457600080fd5b8063704b6c02146104705780637301e3c8146104905780637aa497d9146104b057600080fd5b80634ae36e8e116101645780635a47ddc31161013e5780635a47ddc3146103d65780635e1e6325146103f65780635e60dab51461042b57806366331bba1461044b57600080fd5b80634ae36e8e146103425780634c1ee03e14610376578063544caa561461039657600080fd5b8063116e4ea3116101a0578063116e4ea31461028857806313dcfc59146102b657806326d111f5146102d65780634386e63c1461032257600080fd5b80630483e3cc1461020a578063058e200a146102405780630dede6c41461025357600080fd5b3661020557336001600160a01b037f0000000000000000000000000000000000000000000000000000000000000000161461020357610203613c8a565b005b600080fd5b34801561021657600080fd5b5061022a610225366004613d08565b610696565b6040516102379190613d7b565b60405180910390f35b61022a61024e366004613dbf565b6109f7565b34801561025f57600080fd5b5061027361026e366004613e34565b610d56565b60408051928352602083019190915201610237565b61029b610296366004613eb9565b610f07565b60408051938452602084019290925290820152606001610237565b3480156102c257600080fd5b5061022a6102d1366004613f2b565b611148565b3480156102e257600080fd5b5061030a7f000000000000000000000000000000000000000000000000000000000000000081565b6040516001600160a01b039091168152602001610237565b34801561032e57600080fd5b5061027361033d366004613f8f565b61134e565b34801561034e57600080fd5b5061030a7f000000000000000000000000000000000000000000000000000000000000000081565b34801561038257600080fd5b5061030a610391366004613fe0565b6114b5565b3480156103a257600080fd5b506103b66103b136600461402b565b6115bd565b604080516001600160a01b03938416815292909116602083015201610237565b3480156103e257600080fd5b5061029b6103f1366004614064565b6116b1565b34801561040257600080fd5b506104166104113660046140f3565b611791565b60408051928352901515602083015201610237565b34801561043757600080fd5b50610273610446366004613fe0565b6119e5565b34801561045757600080fd5b50610460600181565b6040519015158152602001610237565b34801561047c57600080fd5b5061020361048b36600461412a565b611aaf565b34801561049c57600080fd5b5061022a6104ab3660046141b2565b611ae8565b3480156104bc57600080fd5b5061030a7f000000000000000000000000000000000000000000000000000000000000000081565b3480156104f057600080fd5b506104606104ff36600461412a565b60016020526000908152604090205460ff1681565b34801561052057600080fd5b5061022a61052f3660046142f4565b611bbe565b34801561054057600080fd5b5061029b61054f36600461439a565b611e40565b34801561056057600080fd5b5061027361056f366004614404565b612040565b34801561058057600080fd5b5061030a7f000000000000000000000000000000000000000000000000000000000000000081565b3480156105b457600080fd5b506102736105c3366004613eb9565b6120fb565b3480156105d457600080fd5b506105e86105e336600461412a565b6121f0565b604051908152602001610237565b34801561060257600080fd5b506102736106113660046144c4565b61225b565b34801561062257600080fd5b5061046061063136600461412a565b612334565b34801561064257600080fd5b5061022a610651366004613d08565b6123c9565b34801561066257600080fd5b5060005461030a906001600160a01b031681565b34801561068257600080fd5b506105e861069136600461412a565b6124ee565b606081428110156106c25760405162461bcd60e51b81526004016106b990614572565b60405180910390fd5b6001600160a01b037f00000000000000000000000000000000000000000000000000000000000000001686866106f96001826145b7565b818110610708576107086145ce565b9050606002016020016020810190610720919061412a565b6001600160a01b0316146107465760405162461bcd60e51b81526004016106b9906145e4565b6107a2888787808060200260200160405190810160405280939291908181526020016000905b82821015610798576107896060830286013681900381019061461b565b8152602001906001019061076c565b5050505050611bbe565b91508682600184516107b491906145b7565b815181106107c4576107c46145ce565b602002602001015110156107ea5760405162461bcd60e51b81526004016106b990614637565b6108b986866000818110610800576108006145ce565b610816926020606090920201908101915061412a565b336108998989600081811061082d5761082d6145ce565b610843926020606090920201908101915061412a565b8a8a6000818110610856576108566145ce565b905060600201602001602081019061086e919061412a565b8b8b6000818110610881576108816145ce565b9050606002016040016020810190610391919061467f565b856000815181106108ac576108ac6145ce565b60200260200101516128b1565b610916828787808060200260200160405190810160405280939291908181526020016000905b8282101561090b576108fc6060830286013681900381019061461b565b815260200190600101906108df565b505050505030612991565b7f00000000000000000000000000000000000000000000000000000000000000006001600160a01b0316632e1a7d4d836001855161095491906145b7565b81518110610964576109646145ce565b60200260200101516040518263ffffffff1660e01b815260040161098a91815260200190565b600060405180830381600087803b1580156109a457600080fd5b505af11580156109b8573d6000803e3d6000fd5b505050506109ec8483600185516109cf91906145b7565b815181106109df576109df6145ce565b6020026020010151612be6565b509695505050505050565b60608142811015610a1a5760405162461bcd60e51b81526004016106b990614572565b7f00000000000000000000000000000000000000000000000000000000000000006001600160a01b031686866000818110610a5757610a576145ce565b610a6d926020606090920201908101915061412a565b6001600160a01b031614610a935760405162461bcd60e51b81526004016106b9906145e4565b610ae5348787808060200260200160405190810160405280939291908181526020016000905b8282101561079857610ad66060830286013681900381019061461b565b81526020019060010190610ab9565b9150868260018451610af791906145b7565b81518110610b0757610b076145ce565b60200260200101511015610b2d5760405162461bcd60e51b81526004016106b990614637565b7f00000000000000000000000000000000000000000000000000000000000000006001600160a01b031663d0e30db083600081518110610b6f57610b6f6145ce565b60200260200101516040518263ffffffff1660e01b81526004016000604051808303818588803b158015610ba257600080fd5b505af1158015610bb6573d6000803e3d6000fd5b50505050507f00000000000000000000000000000000000000000000000000000000000000006001600160a01b031663a9059cbb610c5488886000818110610c0057610c006145ce565b610c16926020606090920201908101915061412a565b89896000818110610c2957610c296145ce565b9050606002016020016020810190610c41919061412a565b8a8a6000818110610881576108816145ce565b84600081518110610c6757610c676145ce565b60200260200101516040518363ffffffff1660e01b8152600401610ca09291906001600160a01b03929092168252602082015260400190565b6020604051808303816000875af1158015610cbf573d6000803e3d6000fd5b505050506040513d601f19601f82011682018060405250810190610ce3919061469c565b610cef57610cef613c8a565b610d4c828787808060200260200160405190810160405280939291908181526020016000905b82821015610d4157610d326060830286013681900381019061461b565b81526020019060010190610d15565b505050505086612991565b5095945050505050565b6000808242811015610d7a5760405162461bcd60e51b81526004016106b990614572565b6000610d878c8c8c6114b5565b6040516323b872dd60e01b81523360048201526001600160a01b03821660248201819052604482018c90529192506323b872dd906064016020604051808303816000875af1158015610ddd573d6000803e3d6000fd5b505050506040513d601f19601f82011682018060405250810190610e01919061469c565b610e0a57600080fd5b60405163226bf2d160e21b81526001600160a01b03878116600483015260009182918416906389afcb449060240160408051808303816000875af1158015610e56573d6000803e3d6000fd5b505050506040513d601f19601f82011682018060405250810190610e7a91906146b9565b915091506000610e8a8f8f6115bd565b509050806001600160a01b03168f6001600160a01b031614610ead578183610eb0565b82825b90975095508a871015610ed55760405162461bcd60e51b81526004016106b9906146dd565b89861015610ef55760405162461bcd60e51b81526004016106b990614720565b50505050509850989650505050505050565b60008060008342811015610f2d5760405162461bcd60e51b81526004016106b990614572565b610f5c8b7f00000000000000000000000000000000000000000000000000000000000000008c8c348d8d612cb4565b90945092506000610f8e8c7f00000000000000000000000000000000000000000000000000000000000000008d6114b5565b9050610f9c8c3383886128b1565b7f00000000000000000000000000000000000000000000000000000000000000006001600160a01b031663d0e30db0856040518263ffffffff1660e01b81526004016000604051808303818588803b158015610ff757600080fd5b505af115801561100b573d6000803e3d6000fd5b505060405163a9059cbb60e01b81526001600160a01b038581166004830152602482018990527f000000000000000000000000000000000000000000000000000000000000000016935063a9059cbb925060440190506020604051808303816000875af1158015611080573d6000803e3d6000fd5b505050506040513d601f19601f820116820180604052508101906110a4919061469c565b6110b0576110b0613c8a565b6040516335313c2160e11b81526001600160a01b038881166004830152821690636a627842906024016020604051808303816000875af11580156110f8573d6000803e3d6000fd5b505050506040513d601f19601f8201168201806040525081019061111c9190614763565b925083341115611139576111393361113486346145b7565b612be6565b50509750975097945050505050565b6060814281101561116b5760405162461bcd60e51b81526004016106b990614572565b604080516001808252818301909252600091816020015b604080516060810182526000808252602080830182905292820152825260001990920191018161118257905050905087816000815181106111c5576111c56145ce565b6020026020010151600001906001600160a01b031690816001600160a01b03168152505086816000815181106111fd576111fd6145ce565b6020026020010151602001906001600160a01b031690816001600160a01b0316815250508581600081518110611235576112356145ce565b60209081029190910101519015156040909101526112538a82611bbe565b925088836001855161126591906145b7565b81518110611275576112756145ce565b6020026020010151101561129b5760405162461bcd60e51b81526004016106b990614637565b611336816000815181106112b1576112b16145ce565b60200260200101516000015133611323846000815181106112d4576112d46145ce565b602002602001015160000151856000815181106112f3576112f36145ce565b60200260200101516020015186600081518110611312576113126145ce565b6020026020010151604001516114b5565b866000815181106108ac576108ac6145ce565b611341838287612991565b5050979650505050505050565b60008060007f00000000000000000000000000000000000000000000000000000000000000006001600160a01b0316636801cc308888886040518463ffffffff1660e01b81526004016113a39392919061477c565b602060405180830381865afa1580156113c0573d6000803e3d6000fd5b505050506040513d601f19601f820116820180604052508101906113e491906147a0565b90506001600160a01b0381166114015760008092509250506114ac565b60008061140f8989896119e5565b915091506000836001600160a01b03166318160ddd6040518163ffffffff1660e01b8152600401602060405180830381865afa158015611453573d6000803e3d6000fd5b505050506040513d601f19601f820116820180604052508101906114779190614763565b90508061148484896147bd565b61148e91906147dc565b95508061149b83896147bd565b6114a591906147dc565b9450505050505b94509492505050565b60008060006114c486866115bd565b6040516bffffffffffffffffffffffff19606084811b8216602084015283901b16603482015286151560f81b604882015291935091507f000000000000000000000000000000000000000000000000000000000000000090604901604051602081830303815290604052805190602001207f000000000000000000000000000000000000000000000000000000000000000060405160200161159b939291906001600160f81b0319815260609390931b6bffffffffffffffffffffffff191660018401526015830191909152603582015260550190565b60408051601f1981840301815291905280516020909101209695505050505050565b600080826001600160a01b0316846001600160a01b0316141561162c5760405162461bcd60e51b815260206004820152602160248201527f426173655631526f757465723a204944454e544943414c5f41444452455353456044820152605360f81b60648201526084016106b9565b826001600160a01b0316846001600160a01b03161061164c57828461164f565b83835b90925090506001600160a01b0382166116aa5760405162461bcd60e51b815260206004820152601a60248201527f426173655631526f757465723a205a45524f5f4144445245535300000000000060448201526064016106b9565b9250929050565b600080600083428110156116d75760405162461bcd60e51b81526004016106b990614572565b6116e68d8d8d8d8d8d8d612cb4565b909450925060006116f88e8e8e6114b5565b90506117068e3383886128b1565b6117128d3383876128b1565b6040516335313c2160e11b81526001600160a01b038881166004830152821690636a627842906024016020604051808303816000875af115801561175a573d6000803e3d6000fd5b505050506040513d601f19601f8201168201806040525081019061177e9190614763565b9250505099509950999650505050505050565b60008060006117a2858560016114b5565b60405163e5e31b1360e01b81526001600160a01b03828116600483015291925060009182917f00000000000000000000000000000000000000000000000000000000000000009091169063e5e31b1390602401602060405180830381865afa158015611812573d6000803e3d6000fd5b505050506040513d601f19601f82011682018060405250810190611836919061469c565b156118af576040516378a051ad60e11b8152600481018990526001600160a01b03888116602483015284169063f140a35a90604401602060405180830381865afa158015611888573d6000803e3d6000fd5b505050506040513d601f19601f820116820180604052508101906118ac9190614763565b91505b6118bb878760006114b5565b60405163e5e31b1360e01b81526001600160a01b0380831660048301529194507f00000000000000000000000000000000000000000000000000000000000000009091169063e5e31b1390602401602060405180830381865afa158015611926573d6000803e3d6000fd5b505050506040513d601f19601f8201168201806040525081019061194a919061469c565b156119c3576040516378a051ad60e11b8152600481018990526001600160a01b03888116602483015284169063f140a35a90604401602060405180830381865afa15801561199c573d6000803e3d6000fd5b505050506040513d601f19601f820116820180604052508101906119c09190614763565b90505b8082116119d2578060006119d6565b8160015b94509450505050935093915050565b60008060006119f486866115bd565b509050600080611a058888886114b5565b6001600160a01b0316630902f1ac6040518163ffffffff1660e01b8152600401606060405180830381865afa158015611a42573d6000803e3d6000fd5b505050506040513d601f19601f82011682018060405250810190611a669190614815565b506001600160701b031691506001600160701b03169150826001600160a01b0316886001600160a01b031614611a9d578082611aa0565b81815b90999098509650505050505050565b6000546001600160a01b03163314611ac657600080fd5b600080546001600160a01b0319166001600160a01b0392909216919091179055565b60608142811015611b0b5760405162461bcd60e51b81526004016106b990614572565b611b6186866000818110611b2157611b216145ce565b611b37926020606090920201908101915061412a565b33611b4e8989600081811061082d5761082d6145ce565b8a6000815181106108ac576108ac6145ce565b611bb3878787808060200260200160405190810160405280939291908181526020016000905b82821015610d4157611ba46060830286013681900381019061461b565b81526020019060010190611b87565b509495945050505050565b6060600182511015611be25760405162461bcd60e51b81526004016106b9906145e4565b8151611bef90600161485a565b67ffffffffffffffff811115611c0757611c07614147565b604051908082528060200260200182016040528015611c30578160200160208202803683370190505b5090508281600081518110611c4757611c476145ce565b60200260200101818152505060005b8251811015611e39576000611cb2848381518110611c7657611c766145ce565b602002602001015160000151858481518110611c9457611c946145ce565b602002602001015160200151868581518110611312576113126145ce565b60405163e5e31b1360e01b81526001600160a01b0380831660048301529192507f00000000000000000000000000000000000000000000000000000000000000009091169063e5e31b1390602401602060405180830381865afa158015611d1d573d6000803e3d6000fd5b505050506040513d601f19601f82011682018060405250810190611d41919061469c565b15611e2657806001600160a01b031663f140a35a848481518110611d6757611d676145ce565b6020026020010151868581518110611d8157611d816145ce565b6020026020010151600001516040518363ffffffff1660e01b8152600401611dbc9291909182526001600160a01b0316602082015260400190565b602060405180830381865afa158015611dd9573d6000803e3d6000fd5b505050506040513d601f19601f82011682018060405250810190611dfd9190614763565b83611e0984600161485a565b81518110611e1957611e196145ce565b6020026020010181815250505b5080611e3181614872565b915050611c56565b5092915050565b6000806000807f00000000000000000000000000000000000000000000000000000000000000006001600160a01b0316636801cc308a8a8a6040518463ffffffff1660e01b8152600401611e969392919061477c565b602060405180830381865afa158015611eb3573d6000803e3d6000fd5b505050506040513d601f19601f82011682018060405250810190611ed791906147a0565b9050600080806001600160a01b03841615611f6157836001600160a01b03166318160ddd6040518163ffffffff1660e01b8152600401602060405180830381865afa158015611f2a573d6000803e3d6000fd5b505050506040513d601f19601f82011682018060405250810190611f4e9190614763565b9050611f5b8c8c8c6119e5565b90935091505b82158015611f6d575081155b15611f9e578896508795506103e8611f8d611f88888a6147bd565b612ed2565b611f9791906145b7565b9450612031565b6000611fab8a8585612f42565b9050888111611ff357899750955085611fec84611fc8848b6147bd565b611fd291906147dc565b84611fdd858b6147bd565b611fe791906147dc565b61301a565b955061202f565b60006120008a8587612f42565b985089975088905061202b8561201685846147bd565b61202091906147dc565b85611fdd868c6147bd565b9650505b505b50505050955095509592505050565b60008060006120508f8f8f6114b5565b905060008761205f578c612063565b6000195b60405163d505accf60e01b81529091506001600160a01b0383169063d505accf9061209e903390309086908f908e908e908e9060040161488d565b600060405180830381600087803b1580156120b857600080fd5b505af11580156120cc573d6000803e3d6000fd5b50505050506120e18f8f8f8f8f8f8f8f610d56565b8093508194505050509c509c9a5050505050505050505050565b600080824281101561211f5760405162461bcd60e51b81526004016106b990614572565b61214f8a7f00000000000000000000000000000000000000000000000000000000000000008b8b8b8b308b610d56565b909350915061215f8a8685613030565b604051632e1a7d4d60e01b8152600481018390527f00000000000000000000000000000000000000000000000000000000000000006001600160a01b031690632e1a7d4d90602401600060405180830381600087803b1580156121c157600080fd5b505af11580156121d5573d6000803e3d6000fd5b505050506121e38583612be6565b5097509795505050505050565b600080546001600160a01b03163314612231576000546040516374e0514b60e11b81523360048201526001600160a01b0390911660248201526044016106b9565b6001600160a01b039091166000908152600160208190526040909120805460ff1916909117905590565b600080600061228b8e7f00000000000000000000000000000000000000000000000000000000000000008f6114b5565b905060008761229a578c61229e565b6000195b60405163d505accf60e01b81529091506001600160a01b0383169063d505accf906122d9903390309086908f908e908e908e9060040161488d565b600060405180830381600087803b1580156122f357600080fd5b505af1158015612307573d6000803e3d6000fd5b5050505061231a8f8f8f8f8f8f8f6120fb565b809450819550505050509b509b9950505050505050505050565b60405163e5e31b1360e01b81526001600160a01b0382811660048301526000917f00000000000000000000000000000000000000000000000000000000000000009091169063e5e31b1390602401602060405180830381865afa15801561239f573d6000803e3d6000fd5b505050506040513d601f19601f820116820180604052508101906123c3919061469c565b92915050565b606081428110156123ec5760405162461bcd60e51b81526004016106b990614572565b61243e888787808060200260200160405190810160405280939291908181526020016000905b828210156107985761242f6060830286013681900381019061461b565b81526020019060010190612412565b915086826001845161245091906145b7565b81518110612460576124606145ce565b602002602001015110156124865760405162461bcd60e51b81526004016106b990614637565b61249c86866000818110610800576108006145ce565b6109ec828787808060200260200160405190810160405280939291908181526020016000905b82821015610d41576124df6060830286013681900381019061461b565b815260200190600101906124c2565b6000806000836001600160a01b03166395d89b416040518163ffffffff1660e01b8152600401600060405180830381865afa158015612531573d6000803e3d6000fd5b505050506040513d6000823e601f3d908101601f1916820160405261255991908101906148fa565b905061258381604051806040016040528060068152602001656343414e544f60d01b81525061311f565b156125de577f000000000000000000000000000000000000000000000000000000000000000091506125d67f00000000000000000000000000000000000000000000000000000000000000006000613178565b949350505050565b836001600160a01b0316636f307dc36040518163ffffffff1660e01b8152600401602060405180830381865afa15801561261c573d6000803e3d6000fd5b505050506040513d601f19601f8201168201806040525081019061264091906147a0565b91506126698160405180604001604052806005815260200164634e4f544560d81b81525061311f565b1561267f5750670de0b6b3a76400009392505050565b6126a6816040518060400160405280600581526020016418d554d11560da1b81525061311f565b80156126da5750336001600160a01b037f000000000000000000000000000000000000000000000000000000000000000016145b15612775576000826001600160a01b031663313ce5676040518163ffffffff1660e01b8152600401602060405180830381865afa15801561271f573d6000803e3d6000fd5b505050506040513d601f19601f82011682018060405250810190612743919061498e565b60ff16905061275381600a614a8f565b61276c906ec097ce7bc90715b34b9f10000000006147dc565b95945050505050565b61279c8160405180604001604052806005815260200164635553444360d81b81525061311f565b80156127d05750336001600160a01b037f000000000000000000000000000000000000000000000000000000000000000016145b15612815576000826001600160a01b031663313ce5676040518163ffffffff1660e01b8152600401602060405180830381865afa15801561271f573d6000803e3d6000fd5b5061281f81612334565b156128345761282d816132d8565b9392505050565b6001600160a01b03811660009081526001602052604090205460ff16156128605761282d816001613178565b670de0b6b3a76400006128947f00000000000000000000000000000000000000000000000000000000000000006000613178565b61289d83613b2c565b6128a791906147bd565b61282d91906147dc565b6000846001600160a01b03163b1161290b5760405162461bcd60e51b815260206004820152601960248201527f746f6b656e20636f6465206c656e677468206661696c7572650000000000000060448201526064016106b9565b6040516323b872dd60e01b81526001600160a01b0384811660048301528381166024830152604482018390528591908216906323b872dd906064016020604051808303816000875af1158015612965573d6000803e3d6000fd5b505050506040513d601f19601f82011682018060405250810190612989919061469c565b505050505050565b60005b8251811015612be05760006129e38483815181106129b4576129b46145ce565b6020026020010151600001518584815181106129d2576129d26145ce565b6020026020010151602001516115bd565b5090506000856129f484600161485a565b81518110612a0457612a046145ce565b60200260200101519050600080836001600160a01b0316878681518110612a2d57612a2d6145ce565b6020026020010151600001516001600160a01b031614612a4f57826000612a53565b6000835b91509150600060018851612a6791906145b7565b8610612a735786612ae6565b612ae688612a8288600161485a565b81518110612a9257612a926145ce565b60200260200101516000015189886001612aac919061485a565b81518110612abc57612abc6145ce565b6020026020010151602001518a896001612ad6919061485a565b81518110611312576113126145ce565b9050612b39888781518110612afd57612afd6145ce565b602002602001015160000151898881518110612b1b57612b1b6145ce565b6020026020010151602001518a8981518110611312576113126145ce565b6001600160a01b031663022c0d9f84848460006040519080825280601f01601f191660200182016040528015612b76576020820181803683370190505b506040518563ffffffff1660e01b8152600401612b969493929190614a9b565b600060405180830381600087803b158015612bb057600080fd5b505af1158015612bc4573d6000803e3d6000fd5b5050505050505050508080612bd890614872565b915050612994565b50505050565b604080516000808252602082019092526001600160a01b038416908390604051612c109190614aeb565b60006040518083038185875af1925050503d8060008114612c4d576040519150601f19603f3d011682016040523d82523d6000602084013e612c52565b606091505b5050905080612caf5760405162461bcd60e51b815260206004820152602360248201527f5472616e7366657248656c7065723a204554485f5452414e534645525f46414960448201526213115160ea1b60648201526084016106b9565b505050565b60008083861015612cc457600080fd5b82851015612cd157600080fd5b6040516306801cc360e41b81526000906001600160a01b037f00000000000000000000000000000000000000000000000000000000000000001690636801cc3090612d24908d908d908d9060040161477c565b602060405180830381865afa158015612d41573d6000803e3d6000fd5b505050506040513d601f19601f82011682018060405250810190612d6591906147a0565b90506001600160a01b038116612e0b576040516320b7f73960e21b81526001600160a01b037f000000000000000000000000000000000000000000000000000000000000000016906382dfdce490612dc5908d908d908d9060040161477c565b6020604051808303816000875af1158015612de4573d6000803e3d6000fd5b505050506040513d601f19601f82011682018060405250810190612e0891906147a0565b90505b600080612e198c8c8c6119e5565b91509150816000148015612e2b575080155b15612e3b57889450879350612ec3565b6000612e488a8484612f42565b9050888111612e7c5786811015612e715760405162461bcd60e51b81526004016106b990614720565b899550935083612ec1565b6000612e898a8486612f42565b90508a811115612e9b57612e9b613c8a565b88811015612ebb5760405162461bcd60e51b81526004016106b9906146dd565b95508894505b505b50505097509795505050505050565b60006003821115612f335750806000612eec6002836147dc565b612ef790600161485a565b90505b81811015612f2d57905080600281612f1281866147dc565b612f1c919061485a565b612f2691906147dc565b9050612efa565b50919050565b8115612f3d575060015b919050565b6000808411612f9d5760405162461bcd60e51b815260206004820152602160248201527f426173655631526f757465723a20494e53554646494349454e545f414d4f554e6044820152601560fa1b60648201526084016106b9565b600083118015612fad5750600082115b6130055760405162461bcd60e51b8152602060048201526024808201527f426173655631526f757465723a20494e53554646494349454e545f4c495155496044820152634449545960e01b60648201526084016106b9565b8261301083866147bd565b6125d691906147dc565b6000818310613029578161282d565b5090919050565b6000836001600160a01b03163b1161304757600080fd5b604080516001600160a01b038481166024830152604480830185905283518084039091018152606490920183526020820180516001600160e01b031663a9059cbb60e01b17905291516000928392908716916130a39190614aeb565b6000604051808303816000865af19150503d80600081146130e0576040519150601f19603f3d011682016040523d82523d6000602084013e6130e5565b606091505b509150915081801561310f57508051158061310f57508080602001905181019061310f919061469c565b61311857600080fd5b5050505050565b6000816040516020016131329190614aeb565b60405160208183030381529060405280519060200120836040516020016131599190614aeb565b6040516020818303038152906040528051906020012014905092915050565b600082816131a77f000000000000000000000000000000000000000000000000000000000000000083866114b5565b90506131b281612334565b6131c1576000925050506123c3565b6000826001600160a01b031663313ce5676040518163ffffffff1660e01b8152600401602060405180830381865afa158015613201573d6000803e3d6000fd5b505050506040513d601f19601f82011682018060405250810190613225919061498e565b61323090600a614b07565b604051639e8cc04b60e01b81526001600160a01b0385811660048301526024820183905260086044830152919250600091841690639e8cc04b90606401602060405180830381865afa15801561328a573d6000803e3d6000fd5b505050506040513d601f19601f820116820180604052508101906132ae9190614763565b9050816132c382670de0b6b3a76400006147bd565b6132cd91906147dc565b979650505050505050565b60405163eba6aef960e01b8152600860048201526001602482015260009081906001600160a01b0384169063eba6aef990604401600060405180830381865afa158015613329573d6000803e3d6000fd5b505050506040513d6000823e601f3d908101601f191682016040526133519190810190614b71565b905060608060606000866001600160a01b0316630dfe16816040518163ffffffff1660e01b8152600401602060405180830381865afa158015613398573d6000803e3d6000fd5b505050506040513d601f19601f820116820180604052508101906133bc91906147a0565b90506000876001600160a01b031663d21220a76040518163ffffffff1660e01b8152600401602060405180830381865afa1580156133fe573d6000803e3d6000fd5b505050506040513d601f19601f8201168201806040525081019061342291906147a0565b90506000886001600160a01b03166322be3de16040518163ffffffff1660e01b8152600401602060405180830381865afa158015613464573d6000803e3d6000fd5b505050506040513d601f19601f82011682018060405250810190613488919061469c565b1561379a577f00000000000000000000000000000000000000000000000000000000000000006001600160a01b0316836001600160a01b0316141561363157816001600160a01b031663313ce5676040518163ffffffff1660e01b8152600401602060405180830381865afa158015613505573d6000803e3d6000fd5b505050506040513d601f19601f82011682018060405250810190613529919061498e565b61353490600a614b07565b6040516313345fe160e01b81529091506001600160a01b038a16906313345fe19061356b9085908590600890600190600401614ba6565b600060405180830381865afa158015613588573d6000803e3d6000fd5b505050506040513d6000823e601f3d908101601f191682016040526135b09190810190614b71565b604051637ccfa8d360e11b815260086004820152600160248201529096506001600160a01b038a169063f99f51a690604401600060405180830381865afa1580156135ff573d6000803e3d6000fd5b505050506040513d6000823e601f3d908101601f191682016040526136279190810190614bcc565b9095509350613977565b826001600160a01b031663313ce5676040518163ffffffff1660e01b8152600401602060405180830381865afa15801561366f573d6000803e3d6000fd5b505050506040513d601f19601f82011682018060405250810190613693919061498e565b61369e90600a614b07565b6040516313345fe160e01b81529091506001600160a01b038a16906313345fe1906136d59086908590600890600190600401614ba6565b600060405180830381865afa1580156136f2573d6000803e3d6000fd5b505050506040513d6000823e601f3d908101601f1916820160405261371a9190810190614b71565b604051637ccfa8d360e11b815260086004820152600160248201529096506001600160a01b038a169063f99f51a690604401600060405180830381865afa158015613769573d6000803e3d6000fd5b505050506040513d6000823e601f3d908101601f191682016040526137919190810190614bcc565b95509350613977565b7f00000000000000000000000000000000000000000000000000000000000000006001600160a01b0316836001600160a01b0316141561381257816001600160a01b031663313ce5676040518163ffffffff1660e01b8152600401602060405180830381865afa158015613505573d6000803e3d6000fd5b826001600160a01b031663313ce5676040518163ffffffff1660e01b8152600401602060405180830381865afa158015613850573d6000803e3d6000fd5b505050506040513d601f19601f82011682018060405250810190613874919061498e565b61387f90600a614b07565b6040516313345fe160e01b81529091506001600160a01b038a16906313345fe1906138b69086908590600890600190600401614ba6565b600060405180830381865afa1580156138d3573d6000803e3d6000fd5b505050506040513d6000823e601f3d908101601f191682016040526138fb9190810190614b71565b604051637ccfa8d360e11b815260086004820152600160248201529096506001600160a01b038a169063f99f51a690604401600060405180830381865afa15801561394a573d6000803e3d6000fd5b505050506040513d6000823e601f3d908101601f191682016040526139729190810190614bcc565b955093505b6000805b6008811015613a5057600083898381518110613999576139996145ce565b60200260200101516139ab91906147dc565b8783815181106139bd576139bd6145ce565b60200260200101516139cf91906147bd565b905060008883815181106139e5576139e56145ce565b602002602001015190508a8381518110613a0157613a016145ce565b60200260200101518183613a15919061485a565b613a2790670de0b6b3a76400006147bd565b613a3191906147dc565b613a3b908561485a565b9350505080613a4990614872565b905061397b565b506000613a5e6008836147dc565b90508a6001600160a01b03166322be3de16040518163ffffffff1660e01b8152600401602060405180830381865afa158015613a9e573d6000803e3d6000fd5b505050506040513d601f19601f82011682018060405250810190613ac2919061469c565b15613ad5579a9950505050505050505050565b670de0b6b3a7640000613b097f00000000000000000000000000000000000000000000000000000000000000006000613178565b613b1390836147bd565b613b1d91906147dc565b9b9a5050505050505050505050565b60008181613b5b7f000000000000000000000000000000000000000000000000000000000000000083836114b5565b9050613b6681612334565b613b74575060009392505050565b6000826001600160a01b031663313ce5676040518163ffffffff1660e01b8152600401602060405180830381865afa158015613bb4573d6000803e3d6000fd5b505050506040513d601f19601f82011682018060405250810190613bd8919061498e565b613be390600a614b07565b604051639e8cc04b60e01b81526001600160a01b0385811660048301526024820183905260086044830152919250600091841690639e8cc04b90606401602060405180830381865afa158015613c3d573d6000803e3d6000fd5b505050506040513d601f19601f82011682018060405250810190613c619190614763565b905081613c7682670de0b6b3a76400006147bd565b613c8091906147dc565b9695505050505050565b634e487b7160e01b600052600160045260246000fd5b60008083601f840112613cb257600080fd5b50813567ffffffffffffffff811115613cca57600080fd5b6020830191508360206060830285010111156116aa57600080fd5b6001600160a01b0381168114613cfa57600080fd5b50565b8035612f3d81613ce5565b60008060008060008060a08789031215613d2157600080fd5b8635955060208701359450604087013567ffffffffffffffff811115613d4657600080fd5b613d5289828a01613ca0565b9095509350506060870135613d6681613ce5565b80925050608087013590509295509295509295565b6020808252825182820181905260009190848201906040850190845b81811015613db357835183529284019291840191600101613d97565b50909695505050505050565b600080600080600060808688031215613dd757600080fd5b85359450602086013567ffffffffffffffff811115613df557600080fd5b613e0188828901613ca0565b9095509350506040860135613e1581613ce5565b949793965091946060013592915050565b8015158114613cfa57600080fd5b600080600080600080600080610100898b031215613e5157600080fd5b8835613e5c81613ce5565b97506020890135613e6c81613ce5565b96506040890135613e7c81613e26565b9550606089013594506080890135935060a0890135925060c0890135613ea181613ce5565b8092505060e089013590509295985092959890939650565b600080600080600080600060e0888a031215613ed457600080fd5b8735613edf81613ce5565b96506020880135613eef81613e26565b955060408801359450606088013593506080880135925060a0880135613f1481613ce5565b8092505060c0880135905092959891949750929550565b600080600080600080600060e0888a031215613f4657600080fd5b87359650602088013595506040880135613f5f81613ce5565b94506060880135613f6f81613ce5565b93506080880135613f7f81613e26565b925060a0880135613f1481613ce5565b60008060008060808587031215613fa557600080fd5b8435613fb081613ce5565b93506020850135613fc081613ce5565b92506040850135613fd081613e26565b9396929550929360600135925050565b600080600060608486031215613ff557600080fd5b833561400081613ce5565b9250602084013561401081613ce5565b9150604084013561402081613e26565b809150509250925092565b6000806040838503121561403e57600080fd5b823561404981613ce5565b9150602083013561405981613ce5565b809150509250929050565b60008060008060008060008060006101208a8c03121561408357600080fd5b893561408e81613ce5565b985060208a013561409e81613ce5565b975060408a01356140ae81613e26565b965060608a0135955060808a0135945060a08a0135935060c08a0135925060e08a01356140da81613ce5565b809250506101008a013590509295985092959850929598565b60008060006060848603121561410857600080fd5b83359250602084013561411a81613ce5565b9150604084013561402081613ce5565b60006020828403121561413c57600080fd5b813561282d81613ce5565b634e487b7160e01b600052604160045260246000fd5b604051601f8201601f1916810167ffffffffffffffff8111828210171561418657614186614147565b604052919050565b600067ffffffffffffffff8211156141a8576141a8614147565b5060051b60200190565b6000806000806000608086880312156141ca57600080fd5b853567ffffffffffffffff808211156141e257600080fd5b818801915088601f8301126141f657600080fd5b8135602061420b6142068361418e565b61415d565b82815260059290921b8401810191818101908c84111561422a57600080fd5b948201945b838610156142485785358252948201949082019061422f565b9950508901359250508082111561425e57600080fd5b5061426b88828901613ca0565b9095509350613e15905060408701613cfd565b60006060828403121561429057600080fd5b6040516060810181811067ffffffffffffffff821117156142b3576142b3614147565b60405290508082356142c481613ce5565b815260208301356142d481613ce5565b602082015260408301356142e781613e26565b6040919091015292915050565b6000806040838503121561430757600080fd5b8235915060208084013567ffffffffffffffff81111561432657600080fd5b8401601f8101861361433757600080fd5b80356143456142068261418e565b8181526060918202830184019184820191908984111561436457600080fd5b938501935b8385101561438a5761437b8a8661427e565b83529384019391850191614369565b5080955050505050509250929050565b600080600080600060a086880312156143b257600080fd5b85356143bd81613ce5565b945060208601356143cd81613ce5565b935060408601356143dd81613e26565b94979396509394606081013594506080013592915050565b60ff81168114613cfa57600080fd5b6000806000806000806000806000806000806101808d8f03121561442757600080fd5b8c3561443281613ce5565b9b5060208d013561444281613ce5565b9a5060408d013561445281613e26565b995060608d0135985060808d0135975060a08d0135965060c08d013561447781613ce5565b955060e08d013594506101008d013561448f81613e26565b93506101208d01356144a0816143f5565b809350506101408d013591506101608d013590509295989b509295989b509295989b565b60008060008060008060008060008060006101608c8e0312156144e657600080fd5b8b356144f181613ce5565b9a5060208c013561450181613e26565b995060408c0135985060608c0135975060808c0135965060a08c013561452681613ce5565b955060c08c0135945060e08c013561453d81613e26565b93506101008c013561454e816143f5565b809350506101208c013591506101408c013590509295989b509295989b9093969950565b60208082526015908201527410985cd9558c549bdd5d195c8e8811561412549151605a1b604082015260600190565b634e487b7160e01b600052601160045260246000fd5b6000828210156145c9576145c96145a1565b500390565b634e487b7160e01b600052603260045260246000fd5b6020808252601a908201527f426173655631526f757465723a20494e56414c49445f50415448000000000000604082015260600190565b60006060828403121561462d57600080fd5b61282d838361427e565b60208082526028908201527f426173655631526f757465723a20494e53554646494349454e545f4f555450556040820152671517d05353d5539560c21b606082015260800190565b60006020828403121561469157600080fd5b813561282d81613e26565b6000602082840312156146ae57600080fd5b815161282d81613e26565b600080604083850312156146cc57600080fd5b505080516020909101519092909150565b60208082526023908201527f426173655631526f757465723a20494e53554646494349454e545f415f414d4f60408201526215539560ea1b606082015260800190565b60208082526023908201527f426173655631526f757465723a20494e53554646494349454e545f425f414d4f60408201526215539560ea1b606082015260800190565b60006020828403121561477557600080fd5b5051919050565b6001600160a01b039384168152919092166020820152901515604082015260600190565b6000602082840312156147b257600080fd5b815161282d81613ce5565b60008160001904831182151516156147d7576147d76145a1565b500290565b6000826147f957634e487b7160e01b600052601260045260246000fd5b500490565b80516001600160701b0381168114612f3d57600080fd5b60008060006060848603121561482a57600080fd5b614833846147fe565b9250614841602085016147fe565b9150604084015163ffffffff8116811461402057600080fd5b6000821982111561486d5761486d6145a1565b500190565b6000600019821415614886576148866145a1565b5060010190565b6001600160a01b0397881681529590961660208601526040850193909352606084019190915260ff16608083015260a082015260c081019190915260e00190565b60005b838110156148e95781810151838201526020016148d1565b83811115612be05750506000910152565b60006020828403121561490c57600080fd5b815167ffffffffffffffff8082111561492457600080fd5b818401915084601f83011261493857600080fd5b81518181111561494a5761494a614147565b61495d601f8201601f191660200161415d565b915080825285602082850101111561497457600080fd5b6149858160208401602086016148ce565b50949350505050565b6000602082840312156149a057600080fd5b815161282d816143f5565b600181815b808511156149e65781600019048211156149cc576149cc6145a1565b808516156149d957918102915b93841c93908002906149b0565b509250929050565b6000826149fd575060016123c3565b81614a0a575060006123c3565b8160018114614a205760028114614a2a57614a46565b60019150506123c3565b60ff841115614a3b57614a3b6145a1565b50506001821b6123c3565b5060208310610133831016604e8410600b8410161715614a69575081810a6123c3565b614a7383836149ab565b8060001904821115614a8757614a876145a1565b029392505050565b600061282d83836149ee565b84815283602082015260018060a01b03831660408201526080606082015260008251806080840152614ad48160a08501602087016148ce565b601f01601f19169190910160a00195945050505050565b60008251614afd8184602087016148ce565b9190910192915050565b600061282d60ff8416836149ee565b600082601f830112614b2757600080fd5b81516020614b376142068361418e565b82815260059290921b84018101918181019086841115614b5657600080fd5b8286015b848110156109ec5780518352918301918301614b5a565b600060208284031215614b8357600080fd5b815167ffffffffffffffff811115614b9a57600080fd5b6125d684828501614b16565b6001600160a01b0394909416845260208401929092526040830152606082015260800190565b60008060408385031215614bdf57600080fd5b825167ffffffffffffffff80821115614bf757600080fd5b614c0386838701614b16565b93506020850151915080821115614c1957600080fd5b50614c2685828601614b16565b915050925092905056fea2646970667358221220aa1ad52c3b24dac45c1cfc3ed05ab7b6edadcebdf435f7b6e141be2763213b6e64736f6c634300080b0033",
  "devdoc": {
    "kind": "dev",
    "methods": {},
    "version": 1
  },
  "userdoc": {
    "kind": "user",
    "methods": {
      "isPriceOracle()": {
        "notice": "Indicator that this is a PriceOracle contract (for inspection)"
      }
    },
    "version": 1
  },
  "storageLayout": {
    "storage": [
      {
        "astId": 25112,
        "contract": "src/Swap/BaseV1-periphery.sol:BaseV1Router01",
        "label": "admin",
        "offset": 0,
        "slot": "0",
        "type": "t_address"
      },
      {
        "astId": 25135,
        "contract": "src/Swap/BaseV1-periphery.sol:BaseV1Router01",
        "label": "isStable",
        "offset": 0,
        "slot": "1",
        "type": "t_mapping(t_address,t_bool)"
      }
    ],
    "types": {
      "t_address": {
        "encoding": "inplace",
        "label": "address",
        "numberOfBytes": "20"
      },
      "t_bool": {
        "encoding": "inplace",
        "label": "bool",
        "numberOfBytes": "1"
      },
      "t_mapping(t_address,t_bool)": {
        "encoding": "mapping",
        "key": "t_address",
        "label": "mapping(address => bool)",
        "numberOfBytes": "32",
        "value": "t_bool"
      }
    }
  }
}