{
  "address": "0x7F5f6501AB569C4cFc7e83AA21590F1cbb2177FB",
  "abi": [
    {
      "inputs": [
        {
          "internalType": "contract CToken",
          "name": "cToken",
          "type": "address"
        },
        {
          "internalType": "address payable",
          "name": "account",
          "type": "address"
        }
      ],
      "name": "cTokenBalances",
      "outputs": [
        {
          "components": [
            {
              "internalType": "address",
              "name": "cToken",
              "type": "address"
            },
            {
              "internalType": "uint256",
              "name": "balanceOf",
              "type": "uint256"
            },
            {
              "internalType": "uint256",
              "name": "borrowBalanceCurrent",
              "type": "uint256"
            },
            {
              "internalType": "uint256",
              "name": "balanceOfUnderlying",
              "type": "uint256"
            },
            {
              "internalType": "uint256",
              "name": "tokenBalance",
              "type": "uint256"
            },
            {
              "internalType": "uint256",
              "name": "tokenAllowance",
              "type": "uint256"
            }
          ],
          "internalType": "struct CompoundLens.CTokenBalances",
          "name": "",
          "type": "tuple"
        }
      ],
      "stateMutability": "nonpayable",
      "type": "function"
    },
    {
      "inputs": [
        {
          "internalType": "contract CToken[]",
          "name": "cTokens",
          "type": "address[]"
        },
        {
          "internalType": "address payable",
          "name": "account",
          "type": "address"
        }
      ],
      "name": "cTokenBalancesAll",
      "outputs": [
        {
          "components": [
            {
              "internalType": "address",
              "name": "cToken",
              "type": "address"
            },
            {
              "internalType": "uint256",
              "name": "balanceOf",
              "type": "uint256"
            },
            {
              "internalType": "uint256",
              "name": "borrowBalanceCurrent",
              "type": "uint256"
            },
            {
              "internalType": "uint256",
              "name": "balanceOfUnderlying",
              "type": "uint256"
            },
            {
              "internalType": "uint256",
              "name": "tokenBalance",
              "type": "uint256"
            },
            {
              "internalType": "uint256",
              "name": "tokenAllowance",
              "type": "uint256"
            }
          ],
          "internalType": "struct CompoundLens.CTokenBalances[]",
          "name": "",
          "type": "tuple[]"
        }
      ],
      "stateMutability": "nonpayable",
      "type": "function"
    },
    {
      "inputs": [
        {
          "internalType": "contract CToken",
          "name": "cToken",
          "type": "address"
        }
      ],
      "name": "cTokenMetadata",
      "outputs": [
        {
          "components": [
            {
              "internalType": "address",
              "name": "cToken",
              "type": "address"
            },
            {
              "internalType": "uint256",
              "name": "exchangeRateCurrent",
              "type": "uint256"
            },
            {
              "internalType": "uint256",
              "name": "supplyRatePerBlock",
              "type": "uint256"
            },
            {
              "internalType": "uint256",
              "name": "borrowRatePerBlock",
              "type": "uint256"
            },
            {
              "internalType": "uint256",
              "name": "reserveFactorMantissa",
              "type": "uint256"
            },
            {
              "internalType": "uint256",
              "name": "totalBorrows",
              "type": "uint256"
            },
            {
              "internalType": "uint256",
              "name": "totalReserves",
              "type": "uint256"
            },
            {
              "internalType": "uint256",
              "name": "totalSupply",
              "type": "uint256"
            },
            {
              "internalType": "uint256",
              "name": "totalCash",
              "type": "uint256"
            },
            {
              "internalType": "bool",
              "name": "isListed",
              "type": "bool"
            },
            {
              "internalType": "uint256",
              "name": "collateralFactorMantissa",
              "type": "uint256"
            },
            {
              "internalType": "address",
              "name": "underlyingAssetAddress",
              "type": "address"
            },
            {
              "internalType": "uint256",
              "name": "cTokenDecimals",
              "type": "uint256"
            },
            {
              "internalType": "uint256",
              "name": "underlyingDecimals",
              "type": "uint256"
            },
            {
              "internalType": "uint256",
              "name": "compSupplySpeed",
              "type": "uint256"
            },
            {
              "internalType": "uint256",
              "name": "compBorrowSpeed",
              "type": "uint256"
            },
            {
              "internalType": "uint256",
              "name": "borrowCap",
              "type": "uint256"
            }
          ],
          "internalType": "struct CompoundLens.CTokenMetadata",
          "name": "",
          "type": "tuple"
        }
      ],
      "stateMutability": "nonpayable",
      "type": "function"
    },
    {
      "inputs": [
        {
          "internalType": "contract CToken[]",
          "name": "cTokens",
          "type": "address[]"
        }
      ],
      "name": "cTokenMetadataAll",
      "outputs": [
        {
          "components": [
            {
              "internalType": "address",
              "name": "cToken",
              "type": "address"
            },
            {
              "internalType": "uint256",
              "name": "exchangeRateCurrent",
              "type": "uint256"
            },
            {
              "internalType": "uint256",
              "name": "supplyRatePerBlock",
              "type": "uint256"
            },
            {
              "internalType": "uint256",
              "name": "borrowRatePerBlock",
              "type": "uint256"
            },
            {
              "internalType": "uint256",
              "name": "reserveFactorMantissa",
              "type": "uint256"
            },
            {
              "internalType": "uint256",
              "name": "totalBorrows",
              "type": "uint256"
            },
            {
              "internalType": "uint256",
              "name": "totalReserves",
              "type": "uint256"
            },
            {
              "internalType": "uint256",
              "name": "totalSupply",
              "type": "uint256"
            },
            {
              "internalType": "uint256",
              "name": "totalCash",
              "type": "uint256"
            },
            {
              "internalType": "bool",
              "name": "isListed",
              "type": "bool"
            },
            {
              "internalType": "uint256",
              "name": "collateralFactorMantissa",
              "type": "uint256"
            },
            {
              "internalType": "address",
              "name": "underlyingAssetAddress",
              "type": "address"
            },
            {
              "internalType": "uint256",
              "name": "cTokenDecimals",
              "type": "uint256"
            },
            {
              "internalType": "uint256",
              "name": "underlyingDecimals",
              "type": "uint256"
            },
            {
              "internalType": "uint256",
              "name": "compSupplySpeed",
              "type": "uint256"
            },
            {
              "internalType": "uint256",
              "name": "compBorrowSpeed",
              "type": "uint256"
            },
            {
              "internalType": "uint256",
              "name": "borrowCap",
              "type": "uint256"
            }
          ],
          "internalType": "struct CompoundLens.CTokenMetadata[]",
          "name": "",
          "type": "tuple[]"
        }
      ],
      "stateMutability": "nonpayable",
      "type": "function"
    },
    {
      "inputs": [
        {
          "internalType": "contract CToken",
          "name": "cToken",
          "type": "address"
        }
      ],
      "name": "cTokenUnderlyingPrice",
      "outputs": [
        {
          "components": [
            {
              "internalType": "address",
              "name": "cToken",
              "type": "address"
            },
            {
              "internalType": "uint256",
              "name": "underlyingPrice",
              "type": "uint256"
            }
          ],
          "internalType": "struct CompoundLens.CTokenUnderlyingPrice",
          "name": "",
          "type": "tuple"
        }
      ],
      "stateMutability": "nonpayable",
      "type": "function"
    },
    {
      "inputs": [
        {
          "internalType": "contract CToken[]",
          "name": "cTokens",
          "type": "address[]"
        }
      ],
      "name": "cTokenUnderlyingPriceAll",
      "outputs": [
        {
          "components": [
            {
              "internalType": "address",
              "name": "cToken",
              "type": "address"
            },
            {
              "internalType": "uint256",
              "name": "underlyingPrice",
              "type": "uint256"
            }
          ],
          "internalType": "struct CompoundLens.CTokenUnderlyingPrice[]",
          "name": "",
          "type": "tuple[]"
        }
      ],
      "stateMutability": "nonpayable",
      "type": "function"
    },
    {
      "inputs": [
        {
          "internalType": "contract ComptrollerLensInterface",
          "name": "comptroller",
          "type": "address"
        },
        {
          "internalType": "address",
          "name": "account",
          "type": "address"
        }
      ],
      "name": "getAccountLimits",
      "outputs": [
        {
          "components": [
            {
              "internalType": "contract CToken[]",
              "name": "markets",
              "type": "address[]"
            },
            {
              "internalType": "uint256",
              "name": "liquidity",
              "type": "uint256"
            },
            {
              "internalType": "uint256",
              "name": "shortfall",
              "type": "uint256"
            }
          ],
          "internalType": "struct CompoundLens.AccountLimits",
          "name": "",
          "type": "tuple"
        }
      ],
      "stateMutability": "nonpayable",
      "type": "function"
    },
    {
      "inputs": [
        {
          "internalType": "contract Comp",
          "name": "comp",
          "type": "address"
        },
        {
          "internalType": "address",
          "name": "account",
          "type": "address"
        }
      ],
      "name": "getCompBalanceMetadata",
      "outputs": [
        {
          "components": [
            {
              "internalType": "uint256",
              "name": "balance",
              "type": "uint256"
            },
            {
              "internalType": "uint256",
              "name": "votes",
              "type": "uint256"
            },
            {
              "internalType": "address",
              "name": "delegate",
              "type": "address"
            }
          ],
          "internalType": "struct CompoundLens.CompBalanceMetadata",
          "name": "",
          "type": "tuple"
        }
      ],
      "stateMutability": "view",
      "type": "function"
    },
    {
      "inputs": [
        {
          "internalType": "contract Comp",
          "name": "comp",
          "type": "address"
        },
        {
          "internalType": "contract ComptrollerLensInterface",
          "name": "comptroller",
          "type": "address"
        },
        {
          "internalType": "address",
          "name": "account",
          "type": "address"
        }
      ],
      "name": "getCompBalanceMetadataExt",
      "outputs": [
        {
          "components": [
            {
              "internalType": "uint256",
              "name": "balance",
              "type": "uint256"
            },
            {
              "internalType": "uint256",
              "name": "votes",
              "type": "uint256"
            },
            {
              "internalType": "address",
              "name": "delegate",
              "type": "address"
            },
            {
              "internalType": "uint256",
              "name": "allocated",
              "type": "uint256"
            }
          ],
          "internalType": "struct CompoundLens.CompBalanceMetadataExt",
          "name": "",
          "type": "tuple"
        }
      ],
      "stateMutability": "nonpayable",
      "type": "function"
    },
    {
      "inputs": [
        {
          "internalType": "contract Comp",
          "name": "comp",
          "type": "address"
        },
        {
          "internalType": "address",
          "name": "account",
          "type": "address"
        },
        {
          "internalType": "uint32[]",
          "name": "blockNumbers",
          "type": "uint32[]"
        }
      ],
      "name": "getCompVotes",
      "outputs": [
        {
          "components": [
            {
              "internalType": "uint256",
              "name": "blockNumber",
              "type": "uint256"
            },
            {
              "internalType": "uint256",
              "name": "votes",
              "type": "uint256"
            }
          ],
          "internalType": "struct CompoundLens.CompVotes[]",
          "name": "",
          "type": "tuple[]"
        }
      ],
      "stateMutability": "view",
      "type": "function"
    },
    {
      "inputs": [
        {
          "internalType": "contract GovernorBravoInterface",
          "name": "governor",
          "type": "address"
        },
        {
          "internalType": "uint256[]",
          "name": "proposalIds",
          "type": "uint256[]"
        }
      ],
      "name": "getGovBravoProposals",
      "outputs": [
        {
          "components": [
            {
              "internalType": "uint256",
              "name": "proposalId",
              "type": "uint256"
            },
            {
              "internalType": "address",
              "name": "proposer",
              "type": "address"
            },
            {
              "internalType": "uint256",
              "name": "eta",
              "type": "uint256"
            },
            {
              "internalType": "address[]",
              "name": "targets",
              "type": "address[]"
            },
            {
              "internalType": "uint256[]",
              "name": "values",
              "type": "uint256[]"
            },
            {
              "internalType": "string[]",
              "name": "signatures",
              "type": "string[]"
            },
            {
              "internalType": "bytes[]",
              "name": "calldatas",
              "type": "bytes[]"
            },
            {
              "internalType": "bool",
              "name": "canceled",
              "type": "bool"
            },
            {
              "internalType": "bool",
              "name": "executed",
              "type": "bool"
            }
          ],
          "internalType": "struct CompoundLens.GovBravoProposal[]",
          "name": "",
          "type": "tuple[]"
        }
      ],
      "stateMutability": "view",
      "type": "function"
    },
    {
      "inputs": [
        {
          "internalType": "contract GovernorBravoInterface",
          "name": "governor",
          "type": "address"
        },
        {
          "internalType": "uint256[]",
          "name": "proposalIds",
          "type": "uint256[]"
        }
      ],
      "name": "getGovProposals",
      "outputs": [
        {
          "components": [
            {
              "internalType": "uint256",
              "name": "id",
              "type": "uint256"
            },
            {
              "internalType": "address",
              "name": "proposer",
              "type": "address"
            },
            {
              "internalType": "uint256",
              "name": "eta",
              "type": "uint256"
            },
            {
              "internalType": "address[]",
              "name": "targets",
              "type": "address[]"
            },
            {
              "internalType": "uint256[]",
              "name": "values",
              "type": "uint256[]"
            },
            {
              "internalType": "string[]",
              "name": "signatures",
              "type": "string[]"
            },
            {
              "internalType": "bytes[]",
              "name": "calldatas",
              "type": "bytes[]"
            },
            {
              "internalType": "bool",
              "name": "canceled",
              "type": "bool"
            },
            {
              "internalType": "bool",
              "name": "executed",
              "type": "bool"
            }
          ],
          "internalType": "struct GovernorBravoInterface.Proposal[]",
          "name": "",
          "type": "tuple[]"
        }
      ],
      "stateMutability": "view",
      "type": "function"
    }
  ],
  "transactionHash": "0xe565c79d912fd99a0111a0995dd1a32beb251145c1a88725551ae866f3e9d4e1",
  "args": [],
  "numDeployments": 1,
  "solcInputHash": "ed32bda1e8ee7c1e01355cdbba45d1b0",
  "bytecode": "0x608060405234801561001057600080fd5b50613212806100206000396000f3fe608060405234801561001057600080fd5b50600436106100b45760003560e01c8063595642191161007157806359564219146101cf57806375d80e90146101ef5780637dd8f6d91461020f578063969948691461022f578063bdf950c91461024f578063c5ae59341461026f57600080fd5b80630972bf8b146100b9578063158eca8b146100e25780631ea63741146101025780632b2d5ed614610151578063416405d7146101715780634b70d84b146101af575b600080fd5b6100cc6100c73660046122f1565b61028f565b6040516100d99190612387565b60405180910390f35b6100f56100f03660046123d5565b61035f565b6040516100d991906124be565b6101156101103660046124cd565b610b01565b6040516100d9919081518152602080830151908201526040808301516001600160a01b0316908201526060918201519181019190915260800190565b61016461015f36600461250d565b610e62565b6040516100d9919061254e565b61018461017f3660046125ae565b610f37565b604080518251815260208084015190820152918101516001600160a01b0316908201526060016100d9565b6101c26101bd36600461250d565b6110d8565b6040516100d991906125e7565b6101e26101dd36600461262a565b611196565b6040516100d9919061268e565b6102026101fd3660046126d0565b611332565b6040516100d99190612908565b61022261021d3660046125ae565b61154d565b6040516100d9919061296a565b61024261023d3660046126d0565b611687565b6040516100d991906129d9565b61026261025d3660046125ae565b611899565b6040516100d99190612a2e565b61028261027d3660046123d5565b611be2565b6040516100d99190612a3c565b6060826000816001600160401b038111156102ac576102ac612a5c565b6040519080825280602002602001820160405280156102e557816020015b6102d26121be565b8152602001906001900390816102ca5790505b50905060005b828110156103535761032387878381811061030857610308612a72565b905060200201602081019061031d91906123d5565b86611899565b82828151811061033557610335612a72565b6020026020010181905250808061034b90612a9e565b9150506102eb565b509150505b9392505050565b6103676121fd565b6000826001600160a01b031663bd6d894d6040518163ffffffff1660e01b81526004016020604051808303816000875af11580156103a9573d6000803e3d6000fd5b505050506040513d601f19601f820116820180604052508101906103cd9190612ab9565b90506000836001600160a01b0316635fe3b5676040518163ffffffff1660e01b8152600401602060405180830381865afa15801561040f573d6000803e3d6000fd5b505050506040513d601f19601f820116820180604052508101906104339190612ad2565b604051638e8f294b60e01b81526001600160a01b038681166004830152919250600091829190841690638e8f294b906024016040805180830381865afa158015610481573d6000803e3d6000fd5b505050506040513d601f19601f820116820180604052508101906104a59190612b04565b91509150600080610539886001600160a01b03166395d89b416040518163ffffffff1660e01b8152600401600060405180830381865afa1580156104ed573d6000803e3d6000fd5b505050506040513d6000823e601f3d908101601f191682016040526105159190810190612bf7565b604051806040016040528060068152602001656343414e544f60d01b815250611d4c565b1561054a575060009050601261067d565b6000889050806001600160a01b0316636f307dc36040518163ffffffff1660e01b8152600401602060405180830381865afa15801561058d573d6000803e3d6000fd5b505050506040513d601f19601f820116820180604052508101906105b19190612ad2565b9250806001600160a01b0316636f307dc36040518163ffffffff1660e01b8152600401602060405180830381865afa1580156105f1573d6000803e3d6000fd5b505050506040513d601f19601f820116820180604052508101906106159190612ad2565b6001600160a01b031663313ce5676040518163ffffffff1660e01b8152600401602060405180830381865afa158015610652573d6000803e3d6000fd5b505050506040513d601f19601f820116820180604052508101906106769190612c3e565b60ff169150505b60008061068a878b611da5565b9150915060008080896001600160a01b0316634a58443260e01b8e6040516020016106c491906001600160a01b0391909116815260200190565b60408051601f19818403018152908290526106e29291602001612c61565b60408051601f19818403018152908290526106fc91612c92565b6000604051808303816000865af19150503d8060008114610739576040519150601f19603f3d011682016040523d82523d6000602084013e61073e565b606091505b50915091508115610760578080602001905181019061075d9190612ab9565b92505b6040518061022001604052808e6001600160a01b031681526020018c81526020018e6001600160a01b031663ae9d70b06040518163ffffffff1660e01b8152600401602060405180830381865afa1580156107bf573d6000803e3d6000fd5b505050506040513d601f19601f820116820180604052508101906107e39190612ab9565b81526020018e6001600160a01b031663f8f9da286040518163ffffffff1660e01b8152600401602060405180830381865afa158015610826573d6000803e3d6000fd5b505050506040513d601f19601f8201168201806040525081019061084a9190612ab9565b81526020018e6001600160a01b031663173b99046040518163ffffffff1660e01b8152600401602060405180830381865afa15801561088d573d6000803e3d6000fd5b505050506040513d601f19601f820116820180604052508101906108b19190612ab9565b81526020018e6001600160a01b03166347bd37186040518163ffffffff1660e01b8152600401602060405180830381865afa1580156108f4573d6000803e3d6000fd5b505050506040513d601f19601f820116820180604052508101906109189190612ab9565b81526020018e6001600160a01b0316638f840ddd6040518163ffffffff1660e01b8152600401602060405180830381865afa15801561095b573d6000803e3d6000fd5b505050506040513d601f19601f8201168201806040525081019061097f9190612ab9565b81526020018e6001600160a01b03166318160ddd6040518163ffffffff1660e01b8152600401602060405180830381865afa1580156109c2573d6000803e3d6000fd5b505050506040513d601f19601f820116820180604052508101906109e69190612ab9565b81526020018e6001600160a01b0316633b1d21a26040518163ffffffff1660e01b8152600401602060405180830381865afa158015610a29573d6000803e3d6000fd5b505050506040513d601f19601f82011682018060405250810190610a4d9190612ab9565b81526020018a15158152602001898152602001886001600160a01b031681526020018e6001600160a01b031663313ce5676040518163ffffffff1660e01b8152600401602060405180830381865afa158015610aad573d6000803e3d6000fd5b505050506040513d601f19601f82011682018060405250810190610ad19190612c3e565b60ff168152602001878152602001868152602001858152602001848152509b505050505050505050505050919050565b610b356040518060800160405280600081526020016000815260200160006001600160a01b03168152602001600081525090565b6040516370a0823160e01b81526001600160a01b038381166004830152600091908616906370a0823190602401602060405180830381865afa158015610b7f573d6000803e3d6000fd5b505050506040513d601f19601f82011682018060405250810190610ba39190612ab9565b6040516374d7814960e11b81526001600160a01b0385811660048301529192509085169063e9af029290602401600060405180830381600087803b158015610bea57600080fd5b505af1158015610bfe573d6000803e3d6000fd5b50506040516370a0823160e01b81526001600160a01b03868116600483015260009350881691506370a0823190602401602060405180830381865afa158015610c4b573d6000803e3d6000fd5b505050506040513d601f19601f82011682018060405250810190610c6f9190612ab9565b60405163331faf7160e21b81526001600160a01b03868116600483015291925060009187169063cc7ebdc490602401602060405180830381865afa158015610cbb573d6000803e3d6000fd5b505050506040513d601f19601f82011682018060405250810190610cdf9190612ab9565b90506000610d1482846040518060400160405280600e81526020016d1cdd5b4818dbdb5c081d1bdd185b60921b815250612028565b90506000610d4882866040518060400160405280600d81526020016c1cdd5888185b1b1bd8d85d1959609a1b815250612062565b60408051608081018252878152905163b4b5ea5760e01b81526001600160a01b038a8116600483015292935090916020830191908c169063b4b5ea5790602401602060405180830381865afa158015610da5573d6000803e3d6000fd5b505050506040513d601f19601f82011682018060405250810190610dc99190612cae565b6001600160601b03168152604051632c3e6f0f60e11b81526001600160a01b038a811660048301526020909201918c169063587cde1e90602401602060405180830381865afa158015610e20573d6000803e3d6000fd5b505050506040513d601f19601f82011682018060405250810190610e449190612ad2565b6001600160a01b031681526020019190915298975050505050505050565b6060816000816001600160401b03811115610e7f57610e7f612a5c565b604051908082528060200260200182016040528015610ec457816020015b6040805180820190915260008082526020820152815260200190600190039081610e9d5790505b50905060005b82811015610f2c57610efc868683818110610ee757610ee7612a72565b905060200201602081019061027d91906123d5565b828281518110610f0e57610f0e612a72565b60200260200101819052508080610f2490612a9e565b915050610eca565b509150505b92915050565b610f646040518060600160405280600081526020016000815260200160006001600160a01b031681525090565b6040805160608101918290526370a0823160e01b9091526001600160a01b038381166064830152819085166370a0823160848301602060405180830381865afa158015610fb5573d6000803e3d6000fd5b505050506040513d601f19601f82011682018060405250810190610fd99190612ab9565b815260405163b4b5ea5760e01b81526001600160a01b03858116600483015260209092019186169063b4b5ea5790602401602060405180830381865afa158015611027573d6000803e3d6000fd5b505050506040513d601f19601f8201168201806040525081019061104b9190612cae565b6001600160601b03168152604051632c3e6f0f60e11b81526001600160a01b03858116600483015260209092019186169063587cde1e90602401602060405180830381865afa1580156110a2573d6000803e3d6000fd5b505050506040513d601f19601f820116820180604052508101906110c69190612ad2565b6001600160a01b031690529392505050565b6060816000816001600160401b038111156110f5576110f5612a5c565b60405190808252806020026020018201604052801561112e57816020015b61111b6121fd565b8152602001906001900390816111135790505b50905060005b82811015610f2c5761116686868381811061115157611151612a72565b90506020020160208101906100f091906123d5565b82828151811061117857611178612a72565b6020026020010181905250808061118e90612a9e565b915050611134565b60606000826001600160401b038111156111b2576111b2612a5c565b6040519080825280602002602001820160405280156111f757816020015b60408051808201909152600080825260208201528152602001906001900390816111d05790505b50905060005b8381101561132857604051806040016040528086868481811061122257611222612a72565b90506020020160208101906112379190612cd7565b63ffffffff168152602001886001600160a01b031663782d6fe18989898781811061126457611264612a72565b90506020020160208101906112799190612cd7565b6040516001600160e01b031960e085901b1681526001600160a01b03909216600483015263ffffffff166024820152604401602060405180830381865afa1580156112c8573d6000803e3d6000fd5b505050506040513d601f19601f820116820180604052508101906112ec9190612cae565b6001600160601b031681525082828151811061130a5761130a612a72565b6020026020010181905250808061132090612a9e565b9150506111fd565b5095945050505050565b60606000826001600160401b0381111561134e5761134e612a5c565b6040519080825280602002602001820160405280156113db57816020015b6113c86040518061012001604052806000815260200160006001600160a01b0316815260200160008152602001606081526020016060815260200160608152602001606081526020016000151581526020016000151581525090565b81526020019060019003908161136c5790505b50905060005b8381101561154457600080600080896001600160a01b031663328dd9828a8a8881811061141057611410612a72565b905060200201356040518263ffffffff1660e01b815260040161143591815260200190565b600060405180830381865afa158015611452573d6000803e3d6000fd5b505050506040513d6000823e601f3d908101601f1916820160405261147a9190810190612f02565b93509350935093506040518061012001604052806000815260200160006001600160a01b0316815260200160008152602001858152602001848152602001838152602001828152602001600015158152602001600015158152508686815181106114e6576114e6612a72565b602002602001018190525061152d86868151811061150657611506612a72565b60200260200101518b8b8b8981811061152157611521612a72565b9050602002013561209c565b50505050808061153c90612a9e565b9150506113e1565b50949350505050565b61157160405180606001604052806060815260200160008152602001600081525090565b604051635ec88c7960e01b81526001600160a01b0383811660048301526000918291829190871690635ec88c7990602401606060405180830381865afa1580156115bf573d6000803e3d6000fd5b505050506040513d601f19601f820116820180604052508101906115e39190612fae565b925092509250826000146115f657600080fd5b604080516060810191829052632aff3bff60e21b9091526001600160a01b0386811660648301528190881663abfceffc60848301600060405180830381865afa158015611647573d6000803e3d6000fd5b505050506040513d6000823e601f3d908101601f1916820160405261166f9190810190612fdc565b81526020810193909352604090920152949350505050565b60606000826001600160401b038111156116a3576116a3612a5c565b60405190808252806020026020018201604052801561173057816020015b61171d6040518061012001604052806000815260200160006001600160a01b0316815260200160008152602001606081526020016060815260200160608152602001606081526020016000151581526020016000151581525090565b8152602001906001900390816116c15790505b50905060005b8381101561154457600080600080896001600160a01b031663328dd9828a8a8881811061176557611765612a72565b905060200201356040518263ffffffff1660e01b815260040161178a91815260200190565b600060405180830381865afa1580156117a7573d6000803e3d6000fd5b505050506040513d6000823e601f3d908101601f191682016040526117cf9190810190612f02565b93509350935093506040518061012001604052806000815260200160006001600160a01b03168152602001600081526020018581526020018481526020018381526020018281526020016000151581526020016000151581525086868151811061183b5761183b612a72565b602002602001018190525061188286868151811061185b5761185b612a72565b60200260200101518b8b8b8981811061187657611876612a72565b9050602002013561214b565b50505050808061189190612a9e565b915050611736565b6118a16121be565b6040516370a0823160e01b81526001600160a01b038381166004830152600091908516906370a0823190602401602060405180830381865afa1580156118eb573d6000803e3d6000fd5b505050506040513d601f19601f8201168201806040525081019061190f9190612ab9565b6040516305eff7ef60e21b81526001600160a01b0385811660048301529192506000918616906317bfdfbc906024016020604051808303816000875af115801561195d573d6000803e3d6000fd5b505050506040513d601f19601f820116820180604052508101906119819190612ab9565b604051633af9e66960e01b81526001600160a01b038681166004830152919250600091871690633af9e669906024016020604051808303816000875af11580156119cf573d6000803e3d6000fd5b505050506040513d601f19601f820116820180604052508101906119f39190612ab9565b9050600080611a39886001600160a01b03166395d89b416040518163ffffffff1660e01b8152600401600060405180830381865afa1580156104ed573d6000803e3d6000fd5b15611a535750506001600160a01b03851680319031611ba5565b60008890506000816001600160a01b0316636f307dc36040518163ffffffff1660e01b8152600401602060405180830381865afa158015611a98573d6000803e3d6000fd5b505050506040513d601f19601f82011682018060405250810190611abc9190612ad2565b6040516370a0823160e01b81526001600160a01b038b81166004830152919250908216906370a0823190602401602060405180830381865afa158015611b06573d6000803e3d6000fd5b505050506040513d601f19601f82011682018060405250810190611b2a9190612ab9565b604051636eb1769f60e11b81526001600160a01b038b811660048301528c811660248301529195509082169063dd62ed3e90604401602060405180830381865afa158015611b7c573d6000803e3d6000fd5b505050506040513d601f19601f82011682018060405250810190611ba09190612ab9565b925050505b6040805160c0810182526001600160a01b039990991689526020890195909552938701929092526060860152608085015260a08401525090919050565b60408051808201909152600080825260208201526000826001600160a01b0316635fe3b5676040518163ffffffff1660e01b8152600401602060405180830381865afa158015611c36573d6000803e3d6000fd5b505050506040513d601f19601f82011682018060405250810190611c5a9190612ad2565b90506000816001600160a01b0316637dc0d1d06040518163ffffffff1660e01b8152600401602060405180830381865afa158015611c9c573d6000803e3d6000fd5b505050506040513d601f19601f82011682018060405250810190611cc09190612ad2565b6040805180820182526001600160a01b03808816808352925163fc57d4df60e01b815260048101939093529293509160208301919084169063fc57d4df90602401602060405180830381865afa158015611d1e573d6000803e3d6000fd5b505050506040513d601f19601f82011682018060405250810190611d429190612ab9565b9052949350505050565b600081604051602001611d5f9190612c92565b6040516020818303038152906040528051906020012083604051602001611d869190612c92565b6040516020818303038152906040528051906020012014905092915050565b60008060008080866001600160a01b0316636aa875b560e01b87604051602001611dde91906001600160a01b0391909116815260200190565b60408051601f1981840301815290829052611dfc9291602001612c61565b60408051601f1981840301815290829052611e1691612c92565b6000604051808303816000865af19150503d8060008114611e53576040519150601f19603f3d011682016040523d82523d6000602084013e611e58565b606091505b50915091508115611e7a5780806020019051810190611e779190612ab9565b92505b604080516001600160a01b038881166020830152600092839283928c16916303d290cf60e61b910160408051601f1981840301815290829052611ec09291602001612c61565b60408051601f1981840301815290829052611eda91612c92565b6000604051808303816000865af19150503d8060008114611f17576040519150601f19603f3d011682016040523d82523d6000602084013e611f1c565b606091505b50915091508115611f3e5780806020019051810190611f3b9190612ab9565b92505b841580611f49575081155b1561201757604080516001600160a01b038b811660208301526000928392918e1691631d7b33d760e01b910160408051601f1981840301815290829052611f939291602001612c61565b60408051601f1981840301815290829052611fad91612c92565b6000604051808303816000865af19150503d8060008114611fea576040519150601f19603f3d011682016040523d82523d6000602084013e611fef565b606091505b50915091508115612014578080602001905181019061200e9190612ab9565b94508497505b50505b5093955093505050505b9250929050565b6000806120358486613075565b905082858210156115445760405162461bcd60e51b8152600401612059919061308d565b60405180910390fd5b600081848411156120865760405162461bcd60e51b8152600401612059919061308d565b50600061209384866130a0565b95945050505050565b60405163013cf08b60e01b8152600481018290526000906001600160a01b0384169063013cf08b90602401600060405180830381865afa1580156120e4573d6000803e3d6000fd5b505050506040513d6000823e601f3d908101601f1916820160405261210c91908101906130b7565b918452506020808201516001600160a01b0316908401526040808201519084015260e08082015115159084015261010090810151151592019190915250565b60405163013cf08b60e01b8152600481018290526001600160a01b0383169063013cf08b90602401600060405180830381865afa158015612190573d6000803e3d6000fd5b505050506040513d6000823e601f3d908101601f191682016040526121b891908101906130b7565b50505050565b6040518060c0016040528060006001600160a01b0316815260200160008152602001600081526020016000815260200160008152602001600081525090565b60405180610220016040528060006001600160a01b0316815260200160008152602001600081526020016000815260200160008152602001600081526020016000815260200160008152602001600081526020016000151581526020016000815260200160006001600160a01b0316815260200160008152602001600081526020016000815260200160008152602001600081525090565b60008083601f8401126122a757600080fd5b5081356001600160401b038111156122be57600080fd5b6020830191508360208260051b850101111561202157600080fd5b6001600160a01b03811681146122ee57600080fd5b50565b60008060006040848603121561230657600080fd5b83356001600160401b0381111561231c57600080fd5b61232886828701612295565b909450925050602084013561233c816122d9565b809150509250925092565b80516001600160a01b031682526020808201519083015260408082015190830152606080820151908301526080808201519083015260a090810151910152565b6020808252825182820181905260009190848201906040850190845b818110156123c9576123b6838551612347565b9284019260c092909201916001016123a3565b50909695505050505050565b6000602082840312156123e757600080fd5b8135610358816122d9565b80516001600160a01b031682526020810151602083015260408101516040830152606081015160608301526080810151608083015260a081015160a083015260c081015160c083015260e081015160e0830152610100808201518184015250610120808201516124658285018215159052565b50506101408181015190830152610160808201516001600160a01b03169083015261018080820151908301526101a080820151908301526101c080820151908301526101e0808201519083015261020090810151910152565b6102208101610f3182846123f2565b6000806000606084860312156124e257600080fd5b83356124ed816122d9565b925060208401356124fd816122d9565b9150604084013561233c816122d9565b6000806020838503121561252057600080fd5b82356001600160401b0381111561253657600080fd5b61254285828601612295565b90969095509350505050565b602080825282518282018190526000919060409081850190868401855b828110156125a15761259184835180516001600160a01b03168252602090810151910152565b928401929085019060010161256b565b5091979650505050505050565b600080604083850312156125c157600080fd5b82356125cc816122d9565b915060208301356125dc816122d9565b809150509250929050565b6020808252825182820181905260009190848201906040850190845b818110156123c9576126168385516123f2565b928401926102209290920191600101612603565b6000806000806060858703121561264057600080fd5b843561264b816122d9565b9350602085013561265b816122d9565b925060408501356001600160401b0381111561267657600080fd5b61268287828801612295565b95989497509550505050565b602080825282518282018190526000919060409081850190868401855b828110156125a1578151805185528601518685015292840192908501906001016126ab565b6000806000604084860312156126e557600080fd5b83356126f0816122d9565b925060208401356001600160401b0381111561270b57600080fd5b61271786828701612295565b9497909650939450505050565b600081518084526020808501945080840160005b8381101561275d5781516001600160a01b031687529582019590820190600101612738565b509495945050505050565b600081518084526020808501945080840160005b8381101561275d5781518752958201959082019060010161277c565b60005b838110156127b357818101518382015260200161279b565b838111156121b85750506000910152565b600081518084526127dc816020860160208601612798565b601f01601f19169290920160200192915050565b600082825180855260208086019550808260051b84010181860160005b8481101561283b57601f198684030189526128298383516127c4565b9884019892509083019060010161280d565b5090979650505050505050565b600061012082518452602083015161286b60208601826001600160a01b03169052565b5060408301516040850152606083015181606086015261288d82860182612724565b915050608083015184820360808601526128a78282612768565b91505060a083015184820360a08601526128c182826127f0565b91505060c083015184820360c08601526128db82826127f0565b91505060e08301516128f160e086018215159052565b506101009283015115159390920192909252919050565b6000602080830181845280855180835260408601915060408160051b870101925083870160005b8281101561295d57603f1988860301845261294b858351612848565b9450928501929085019060010161292f565b5092979650505050505050565b6020808252825160608383015280516080840181905260009291820190839060a08601905b808310156129b85783516001600160a01b0316825292840192600192909201919084019061298f565b50838701516040870152604087015160608701528094505050505092915050565b6000602080830181845280855180835260408601915060408160051b870101925083870160005b8281101561295d57603f19888603018452612a1c858351612848565b94509285019290850190600101612a00565b60c08101610f318284612347565b81516001600160a01b031681526020808301519082015260408101610f31565b634e487b7160e01b600052604160045260246000fd5b634e487b7160e01b600052603260045260246000fd5b634e487b7160e01b600052601160045260246000fd5b6000600019821415612ab257612ab2612a88565b5060010190565b600060208284031215612acb57600080fd5b5051919050565b600060208284031215612ae457600080fd5b8151610358816122d9565b80518015158114612aff57600080fd5b919050565b60008060408385031215612b1757600080fd5b612b2083612aef565b9150602083015190509250929050565b60405161012081016001600160401b0381118282101715612b5357612b53612a5c565b60405290565b604051601f8201601f191681016001600160401b0381118282101715612b8157612b81612a5c565b604052919050565b60006001600160401b03831115612ba257612ba2612a5c565b612bb5601f8401601f1916602001612b59565b9050828152838383011115612bc957600080fd5b610358836020830184612798565b600082601f830112612be857600080fd5b61035883835160208501612b89565b600060208284031215612c0957600080fd5b81516001600160401b03811115612c1f57600080fd5b612c2b84828501612bd7565b949350505050565b8051612aff816122d9565b600060208284031215612c5057600080fd5b815160ff8116811461035857600080fd5b6001600160e01b0319831681528151600090612c84816004850160208701612798565b919091016004019392505050565b60008251612ca4818460208701612798565b9190910192915050565b600060208284031215612cc057600080fd5b81516001600160601b038116811461035857600080fd5b600060208284031215612ce957600080fd5b813563ffffffff8116811461035857600080fd5b60006001600160401b03821115612d1657612d16612a5c565b5060051b60200190565b600082601f830112612d3157600080fd5b81516020612d46612d4183612cfd565b612b59565b82815260059290921b84018101918181019086841115612d6557600080fd5b8286015b84811015612d89578051612d7c816122d9565b8352918301918301612d69565b509695505050505050565b600082601f830112612da557600080fd5b81516020612db5612d4183612cfd565b82815260059290921b84018101918181019086841115612dd457600080fd5b8286015b84811015612d895780518352918301918301612dd8565b600082601f830112612e0057600080fd5b81516020612e10612d4183612cfd565b82815260059290921b84018101918181019086841115612e2f57600080fd5b8286015b84811015612d895780516001600160401b03811115612e525760008081fd5b612e608986838b0101612bd7565b845250918301918301612e33565b600082601f830112612e7f57600080fd5b81516020612e8f612d4183612cfd565b82815260059290921b84018101918181019086841115612eae57600080fd5b8286015b84811015612d895780516001600160401b03811115612ed15760008081fd5b8701603f81018913612ee35760008081fd5b612ef4898683015160408401612b89565b845250918301918301612eb2565b60008060008060808587031215612f1857600080fd5b84516001600160401b0380821115612f2f57600080fd5b612f3b88838901612d20565b95506020870151915080821115612f5157600080fd5b612f5d88838901612d94565b94506040870151915080821115612f7357600080fd5b612f7f88838901612def565b93506060870151915080821115612f9557600080fd5b50612fa287828801612e6e565b91505092959194509250565b600080600060608486031215612fc357600080fd5b8351925060208401519150604084015190509250925092565b60006020808385031215612fef57600080fd5b82516001600160401b0381111561300557600080fd5b8301601f8101851361301657600080fd5b8051613024612d4182612cfd565b81815260059190911b8201830190838101908783111561304357600080fd5b928401925b8284101561306a57835161305b816122d9565b82529284019290840190613048565b979650505050505050565b6000821982111561308857613088612a88565b500190565b60208152600061035860208301846127c4565b6000828210156130b2576130b2612a88565b500390565b6000602082840312156130c957600080fd5b81516001600160401b03808211156130e057600080fd5b9083019061012082860312156130f557600080fd5b6130fd612b30565b8251815261310d60208401612c33565b60208201526040830151604082015260608301518281111561312e57600080fd5b61313a87828601612d20565b60608301525060808301518281111561315257600080fd5b61315e87828601612d94565b60808301525060a08301518281111561317657600080fd5b61318287828601612def565b60a08301525060c08301518281111561319a57600080fd5b6131a687828601612e6e565b60c0830152506131b860e08401612aef565b60e082015261010091506131cd828401612aef565b9181019190915294935050505056fea2646970667358221220313ae1df90cb8483d89e60ae3f2fdef4d50ca057b6b07f828ffd56eb4764825464736f6c634300080b0033",
  "devdoc": {
    "kind": "dev",
    "methods": {},
    "version": 1
  },
  "userdoc": {
    "kind": "user",
    "methods": {},
    "version": 1
  },
  "storageLayout": {
    "storage": [],
    "types": null
  }
}