{
  "address": "0xd050Bc9B1B0796cc20868Af9Ee13F50d710c1af1",
  "abi": [
    {
      "inputs": [
        {
          "internalType": "address",
          "name": "timelock_",
          "type": "address"
        },
        {
          "internalType": "address",
          "name": "admin_",
          "type": "address"
        },
        {
          "internalType": "address",
          "name": "implementation_",
          "type": "address"
        }
      ],
      "stateMutability": "nonpayable",
      "type": "constructor"
    },
    {
      "anonymous": false,
      "inputs": [
        {
          "indexed": false,
          "internalType": "address",
          "name": "oldAdmin",
          "type": "address"
        },
        {
          "indexed": false,
          "internalType": "address",
          "name": "newAdmin",
          "type": "address"
        }
      ],
      "name": "NewAdmin",
      "type": "event"
    },
    {
      "anonymous": false,
      "inputs": [
        {
          "indexed": false,
          "internalType": "address",
          "name": "oldImplementation",
          "type": "address"
        },
        {
          "indexed": false,
          "internalType": "address",
          "name": "newImplementation",
          "type": "address"
        }
      ],
      "name": "NewImplementation",
      "type": "event"
    },
    {
      "anonymous": false,
      "inputs": [
        {
          "indexed": false,
          "internalType": "address",
          "name": "oldPendingAdmin",
          "type": "address"
        },
        {
          "indexed": false,
          "internalType": "address",
          "name": "newPendingAdmin",
          "type": "address"
        }
      ],
      "name": "NewPendingAdmin",
      "type": "event"
    },
    {
      "anonymous": false,
      "inputs": [
        {
          "indexed": false,
          "internalType": "uint256",
          "name": "id",
          "type": "uint256"
        }
      ],
      "name": "ProposalCanceled",
      "type": "event"
    },
    {
      "anonymous": false,
      "inputs": [
        {
          "indexed": false,
          "internalType": "uint256",
          "name": "id",
          "type": "uint256"
        },
        {
          "indexed": false,
          "internalType": "address",
          "name": "proposer",
          "type": "address"
        },
        {
          "indexed": false,
          "internalType": "address[]",
          "name": "targets",
          "type": "address[]"
        },
        {
          "indexed": false,
          "internalType": "uint256[]",
          "name": "values",
          "type": "uint256[]"
        },
        {
          "indexed": false,
          "internalType": "string[]",
          "name": "signatures",
          "type": "string[]"
        },
        {
          "indexed": false,
          "internalType": "bytes[]",
          "name": "calldatas",
          "type": "bytes[]"
        },
        {
          "indexed": false,
          "internalType": "uint256",
          "name": "startBlock",
          "type": "uint256"
        },
        {
          "indexed": false,
          "internalType": "uint256",
          "name": "endBlock",
          "type": "uint256"
        },
        {
          "indexed": false,
          "internalType": "string",
          "name": "description",
          "type": "string"
        }
      ],
      "name": "ProposalCreated",
      "type": "event"
    },
    {
      "anonymous": false,
      "inputs": [
        {
          "indexed": false,
          "internalType": "uint256",
          "name": "id",
          "type": "uint256"
        }
      ],
      "name": "ProposalExecuted",
      "type": "event"
    },
    {
      "anonymous": false,
      "inputs": [
        {
          "indexed": false,
          "internalType": "uint256",
          "name": "id",
          "type": "uint256"
        },
        {
          "indexed": false,
          "internalType": "uint256",
          "name": "eta",
          "type": "uint256"
        }
      ],
      "name": "ProposalQueued",
      "type": "event"
    },
    {
      "anonymous": false,
      "inputs": [
        {
          "indexed": false,
          "internalType": "uint256",
          "name": "oldProposalThreshold",
          "type": "uint256"
        },
        {
          "indexed": false,
          "internalType": "uint256",
          "name": "newProposalThreshold",
          "type": "uint256"
        }
      ],
      "name": "ProposalThresholdSet",
      "type": "event"
    },
    {
      "stateMutability": "payable",
      "type": "fallback"
    },
    {
      "inputs": [],
      "name": "_acceptInitialAdminDelegated",
      "outputs": [],
      "stateMutability": "nonpayable",
      "type": "function"
    },
    {
      "inputs": [],
      "name": "_initiateDelegated",
      "outputs": [],
      "stateMutability": "nonpayable",
      "type": "function"
    },
    {
      "inputs": [
        {
          "internalType": "address",
          "name": "implementation_",
          "type": "address"
        }
      ],
      "name": "_setImplementation",
      "outputs": [],
      "stateMutability": "nonpayable",
      "type": "function"
    },
    {
      "inputs": [
        {
          "internalType": "address",
          "name": "newPendingAdmin",
          "type": "address"
        }
      ],
      "name": "_setPendingAdminDelegated",
      "outputs": [],
      "stateMutability": "nonpayable",
      "type": "function"
    },
    {
      "inputs": [],
      "name": "admin",
      "outputs": [
        {
          "internalType": "address",
          "name": "",
          "type": "address"
        }
      ],
      "stateMutability": "view",
      "type": "function"
    },
    {
      "inputs": [],
      "name": "implementation",
      "outputs": [
        {
          "internalType": "address",
          "name": "",
          "type": "address"
        }
      ],
      "stateMutability": "view",
      "type": "function"
    },
    {
      "inputs": [],
      "name": "pendingAdmin",
      "outputs": [
        {
          "internalType": "address",
          "name": "",
          "type": "address"
        }
      ],
      "stateMutability": "view",
      "type": "function"
    }
  ],
  "transactionHash": "0xbe7693f8536041b8230c54abc6288f1ec64c557dafff5a809066c1db563c766c",
  "args": [
    "0xd06fe7C2b0d5Da7224b11879389a338A7Ff83869",
    "0x2fA8e44e9A3D833019FCc52D62B4dD05125cA1b1",
    "0x5d6b6B7A37f7eDdfc5576E01E351891f15e934E1"
  ],
  "numDeployments": 1,
  "solcInputHash": "ed32bda1e8ee7c1e01355cdbba45d1b0",
  "bytecode": "0x608060405234801561001057600080fd5b506040516109ff3803806109ff83398101604081905261002f916102a2565b600080546001600160a01b031916331790556040516001600160a01b038416602482015261008f90829060440160408051601f198184030181529190526020810180516001600160e01b0390811663189acdbd60e31b179091526100bf16565b61009881610135565b50600080546001600160a01b0319166001600160a01b039290921691909117905550610320565b600080836001600160a01b0316836040516100da91906102e5565b600060405180830381855af49150503d8060008114610115576040519150601f19603f3d011682016040523d82523d6000602084013e61011a565b606091505b5091509150600082141561012f573d60208201fd5b50505050565b6000546001600160a01b031633146101a85760405162461bcd60e51b815260206004820152603660248201526000805160206109df83398151915260448201527f656d656e746174696f6e3a2061646d696e206f6e6c790000000000000000000060648201526084015b60405180910390fd5b6001600160a01b0381166102255760405162461bcd60e51b815260206004820152604a60248201526000805160206109df83398151915260448201527f656d656e746174696f6e3a20696e76616c696420696d706c656d656e746174696064820152696f6e206164647265737360b01b608482015260a40161019f565b600280546001600160a01b038381166001600160a01b031983168117909355604080519190921680825260208201939093527fd604de94d45953f9138079ec1b82d533cb2160c906d1076d1f7ed54befbca97a910160405180910390a15050565b80516001600160a01b038116811461029d57600080fd5b919050565b6000806000606084860312156102b757600080fd5b6102c084610286565b92506102ce60208501610286565b91506102dc60408501610286565b90509250925092565b6000825160005b8181101561030657602081860181015185830152016102ec565b81811115610315576000828501525b509190910192915050565b6106b08061032f6000396000f3fe6080604052600436106100705760003560e01c8063678fbac51161004e578063678fbac51461015e578063bb913f411461017e578063cdabcc641461019e578063f851a440146101b357610070565b806322da060b146100eb57806326782247146101025780635c60da1b1461013e575b6002546040516000916001600160a01b03169061009090839036906105ff565b600060405180830381855af49150503d80600081146100cb576040519150601f19603f3d011682016040523d82523d6000602084013e6100d0565b606091505b505090506040513d6000823e8180156100e7573d82f35b3d82fd5b3480156100f757600080fd5b506101006101d3565b005b34801561010e57600080fd5b50600154610122906001600160a01b031681565b6040516001600160a01b03909116815260200160405180910390f35b34801561014a57600080fd5b50600254610122906001600160a01b031681565b34801561016a57600080fd5b5061010061017936600461060f565b610292565b34801561018a57600080fd5b5061010061019936600461060f565b610363565b3480156101aa57600080fd5b506101006104cc565b3480156101bf57600080fd5b50600054610122906001600160a01b031681565b6000546001600160a01b031633146102515760405162461bcd60e51b815260206004820152603660248201527f476f7665726e6f72427261766f44656c656761746f723a3a5f696e69746961746044820152756544656c6567617465643a2061646d696e206f6e6c7960501b60648201526084015b60405180910390fd5b6002546040805160048152602481019091526020810180516001600160e01b03166343c78a4160e11b179052610290916001600160a01b031690610589565b565b6000546001600160a01b031633146103125760405162461bcd60e51b815260206004820152603d60248201527f476f7665726e6f72427261766f44656c656761746f723a3a5f73657450656e6460448201527f696e6741646d696e44656c6567617465643a2061646d696e206f6e6c790000006064820152608401610248565b6002546040516001600160a01b03838116602483015261036092169060440160408051601f198184030181529190526020810180516001600160e01b0316632dc7468360e21b179052610589565b50565b6000546001600160a01b031633146103dc5760405162461bcd60e51b815260206004820152603660248201527f476f7665726e6f72427261766f44656c656761746f723a3a5f736574496d706c604482015275656d656e746174696f6e3a2061646d696e206f6e6c7960501b6064820152608401610248565b6001600160a01b03811661046b5760405162461bcd60e51b815260206004820152604a60248201527f476f7665726e6f72427261766f44656c656761746f723a3a5f736574496d706c60448201527f656d656e746174696f6e3a20696e76616c696420696d706c656d656e746174696064820152696f6e206164647265737360b01b608482015260a401610248565b600280546001600160a01b038381166001600160a01b031983168117909355604080519190921680825260208201939093527fd604de94d45953f9138079ec1b82d533cb2160c906d1076d1f7ed54befbca97a910160405180910390a15050565b6000546001600160a01b0316331461054e576040805162461bcd60e51b81526020600482015260248101919091527f476f7665726e6f72427261766f44656c656761746f723a3a5f6163636570744960448201527f6e697469616c41646d696e44656c6567617465643a2061646d696e206f6e6c796064820152608401610248565b6002546040805160048152602481019091526020810180516001600160e01b0316632f3a013760e11b179052610290916001600160a01b0316905b600080836001600160a01b0316836040516105a4919061063f565b600060405180830381855af49150503d80600081146105df576040519150601f19603f3d011682016040523d82523d6000602084013e6105e4565b606091505b509150915060008214156105f9573d60208201fd5b50505050565b8183823760009101908152919050565b60006020828403121561062157600080fd5b81356001600160a01b038116811461063857600080fd5b9392505050565b6000825160005b818110156106605760208186018101518583015201610646565b8181111561066f576000828501525b50919091019291505056fea26469706673582212206ae5c5dcc4aa6152433ff19a3d65555ad0af19f87f12ff62ff6c3fea4190ef1b64736f6c634300080b0033476f7665726e6f72427261766f44656c656761746f723a3a5f736574496d706c",
  "devdoc": {
    "kind": "dev",
    "methods": {
      "_setImplementation(address)": {
        "params": {
          "implementation_": "The address of the new implementation for delegation"
        }
      }
    },
    "version": 1
  },
  "userdoc": {
    "events": {
      "NewAdmin(address,address)": {
        "notice": "Emitted when pendingAdmin is accepted, which means admin is updated"
      },
      "NewImplementation(address,address)": {
        "notice": "Emitted when implementation is changed"
      },
      "NewPendingAdmin(address,address)": {
        "notice": "Emitted when pendingAdmin is changed"
      },
      "ProposalCanceled(uint256)": {
        "notice": "An event emitted when a proposal has been canceled"
      },
      "ProposalCreated(uint256,address,address[],uint256[],string[],bytes[],uint256,uint256,string)": {
        "notice": "An event emitted when a new proposal is created"
      },
      "ProposalExecuted(uint256)": {
        "notice": "An event emitted when a proposal has been executed in the Timelock"
      },
      "ProposalQueued(uint256,uint256)": {
        "notice": "An event emitted when a proposal has been queued in the Timelock"
      },
      "ProposalThresholdSet(uint256,uint256)": {
        "notice": "Emitted when proposal threshold is set"
      }
    },
    "kind": "user",
    "methods": {
      "_acceptInitialAdminDelegated()": {
        "notice": "Called by the admin to make a delegate call for the acceptInitialAdmin function"
      },
      "_initiateDelegated()": {
        "notice": "Called by the admin to make a delegate call for the initiate function"
      },
      "_setImplementation(address)": {
        "notice": "Called by the admin to update the implementation of the delegator"
      },
      "_setPendingAdminDelegated(address)": {
        "notice": "Called by the admin to make a delegate call for the setPendingAdmin function"
      },
      "admin()": {
        "notice": "Administrator for this contract"
      },
      "implementation()": {
        "notice": "Active brains of Governor"
      },
      "pendingAdmin()": {
        "notice": "Pending administrator for this contract"
      }
    },
    "version": 1
  },
  "storageLayout": {
    "storage": [
      {
        "astId": 18509,
        "contract": "src/Governance/GovernorBravoDelegator.sol:GovernorBravoDelegator",
        "label": "admin",
        "offset": 0,
        "slot": "0",
        "type": "t_address"
      },
      {
        "astId": 18512,
        "contract": "src/Governance/GovernorBravoDelegator.sol:GovernorBravoDelegator",
        "label": "pendingAdmin",
        "offset": 0,
        "slot": "1",
        "type": "t_address"
      },
      {
        "astId": 18515,
        "contract": "src/Governance/GovernorBravoDelegator.sol:GovernorBravoDelegator",
        "label": "implementation",
        "offset": 0,
        "slot": "2",
        "type": "t_address"
      }
    ],
    "types": {
      "t_address": {
        "encoding": "inplace",
        "label": "address",
        "numberOfBytes": "20"
      }
    }
  }
}