{
  "address": "0x1Fc13a6d75F4f5714985930D919eb92649a8b972",
  "abi": [
    {
      "inputs": [
        {
          "internalType": "uint256",
          "name": "_baseRatePerYear",
          "type": "uint256"
        }
      ],
      "stateMutability": "nonpayable",
      "type": "constructor"
    },
    {
      "inputs": [
        {
          "internalType": "contract CToken",
          "name": "ctoken",
          "type": "address"
        }
      ],
      "name": "FailedPriceRetrieval",
      "type": "error"
    },
    {
      "inputs": [
        {
          "internalType": "address",
          "name": "sender",
          "type": "address"
        }
      ],
      "name": "SenderNotAdmin",
      "type": "error"
    },
    {
      "anonymous": false,
      "inputs": [
        {
          "indexed": false,
          "internalType": "uint256",
          "name": "oldAdjusterCoefficient",
          "type": "uint256"
        },
        {
          "indexed": false,
          "internalType": "uint256",
          "name": "newAdjusterCoefficient",
          "type": "uint256"
        }
      ],
      "name": "NewAdjusterCoefficient",
      "type": "event"
    },
    {
      "anonymous": false,
      "inputs": [
        {
          "indexed": false,
          "internalType": "address",
          "name": "oldAdmin",
          "type": "address"
        },
        {
          "indexed": false,
          "internalType": "address",
          "name": "newAdmin",
          "type": "address"
        }
      ],
      "name": "NewAdmin",
      "type": "event"
    },
    {
      "anonymous": false,
      "inputs": [
        {
          "indexed": false,
          "internalType": "uint256",
          "name": "oldBaseRateMantissa",
          "type": "uint256"
        },
        {
          "indexed": false,
          "internalType": "uint256",
          "name": "newBaseRateMantissa",
          "type": "uint256"
        }
      ],
      "name": "NewBaseRate",
      "type": "event"
    },
    {
      "anonymous": false,
      "inputs": [
        {
          "indexed": false,
          "internalType": "uint256",
          "name": "baserateperblock",
          "type": "uint256"
        }
      ],
      "name": "NewInterestParams",
      "type": "event"
    },
    {
      "anonymous": false,
      "inputs": [
        {
          "indexed": false,
          "internalType": "address",
          "name": "oldOracle",
          "type": "address"
        },
        {
          "indexed": false,
          "internalType": "address",
          "name": "newOracle",
          "type": "address"
        }
      ],
      "name": "NewPriceOracle",
      "type": "event"
    },
    {
      "anonymous": false,
      "inputs": [
        {
          "indexed": false,
          "internalType": "uint256",
          "name": "oldUpdateFrequency",
          "type": "uint256"
        },
        {
          "indexed": false,
          "internalType": "uint256",
          "name": "newUpdateFrequency",
          "type": "uint256"
        }
      ],
      "name": "NewUpdateFrequency",
      "type": "event"
    },
    {
      "inputs": [],
      "name": "BASE",
      "outputs": [
        {
          "internalType": "uint256",
          "name": "",
          "type": "uint256"
        }
      ],
      "stateMutability": "view",
      "type": "function"
    },
    {
      "inputs": [],
      "name": "BlocksPerYear",
      "outputs": [
        {
          "internalType": "uint256",
          "name": "",
          "type": "uint256"
        }
      ],
      "stateMutability": "view",
      "type": "function"
    },
    {
      "inputs": [
        {
          "internalType": "uint256",
          "name": "newAdjusterCoefficient",
          "type": "uint256"
        }
      ],
      "name": "_setAdjusterCoefficient",
      "outputs": [],
      "stateMutability": "nonpayable",
      "type": "function"
    },
    {
      "inputs": [
        {
          "internalType": "uint256",
          "name": "newBaseRateMantissa",
          "type": "uint256"
        }
      ],
      "name": "_setBaseRatePerYear",
      "outputs": [],
      "stateMutability": "nonpayable",
      "type": "function"
    },
    {
      "inputs": [
        {
          "internalType": "uint256",
          "name": "newUpdateFrequency",
          "type": "uint256"
        }
      ],
      "name": "_setUpdateFrequency",
      "outputs": [],
      "stateMutability": "nonpayable",
      "type": "function"
    },
    {
      "inputs": [],
      "name": "adjusterCoefficient",
      "outputs": [
        {
          "internalType": "uint256",
          "name": "",
          "type": "uint256"
        }
      ],
      "stateMutability": "view",
      "type": "function"
    },
    {
      "inputs": [],
      "name": "baseRatePerBlock",
      "outputs": [
        {
          "internalType": "uint256",
          "name": "",
          "type": "uint256"
        }
      ],
      "stateMutability": "view",
      "type": "function"
    },
    {
      "inputs": [],
      "name": "baseRatePerYear",
      "outputs": [
        {
          "internalType": "uint256",
          "name": "",
          "type": "uint256"
        }
      ],
      "stateMutability": "view",
      "type": "function"
    },
    {
      "inputs": [],
      "name": "cUsdc",
      "outputs": [
        {
          "internalType": "contract CErc20",
          "name": "",
          "type": "address"
        }
      ],
      "stateMutability": "view",
      "type": "function"
    },
    {
      "inputs": [],
      "name": "decimals",
      "outputs": [
        {
          "internalType": "uint256",
          "name": "",
          "type": "uint256"
        }
      ],
      "stateMutability": "view",
      "type": "function"
    },
    {
      "inputs": [],
      "name": "dolValue",
      "outputs": [
        {
          "internalType": "uint256",
          "name": "",
          "type": "uint256"
        }
      ],
      "stateMutability": "view",
      "type": "function"
    },
    {
      "inputs": [
        {
          "internalType": "uint256",
          "name": "cash",
          "type": "uint256"
        },
        {
          "internalType": "uint256",
          "name": "borrows",
          "type": "uint256"
        },
        {
          "internalType": "uint256",
          "name": "reserves",
          "type": "uint256"
        }
      ],
      "name": "getBorrowRate",
      "outputs": [
        {
          "internalType": "uint256",
          "name": "",
          "type": "uint256"
        }
      ],
      "stateMutability": "view",
      "type": "function"
    },
    {
      "inputs": [
        {
          "internalType": "uint256",
          "name": "cash",
          "type": "uint256"
        },
        {
          "internalType": "uint256",
          "name": "borrows",
          "type": "uint256"
        },
        {
          "internalType": "uint256",
          "name": "reserves",
          "type": "uint256"
        },
        {
          "internalType": "uint256",
          "name": "reserveFactorMantissa",
          "type": "uint256"
        }
      ],
      "name": "getSupplyRate",
      "outputs": [
        {
          "internalType": "uint256",
          "name": "",
          "type": "uint256"
        }
      ],
      "stateMutability": "view",
      "type": "function"
    },
    {
      "inputs": [
        {
          "internalType": "address",
          "name": "cUsdcAddr",
          "type": "address"
        },
        {
          "internalType": "address",
          "name": "oracleAddress",
          "type": "address"
        }
      ],
      "name": "initialize",
      "outputs": [],
      "stateMutability": "nonpayable",
      "type": "function"
    },
    {
      "inputs": [],
      "name": "isInterestRateModel",
      "outputs": [
        {
          "internalType": "bool",
          "name": "",
          "type": "bool"
        }
      ],
      "stateMutability": "view",
      "type": "function"
    },
    {
      "inputs": [],
      "name": "lastUpdateBlock",
      "outputs": [
        {
          "internalType": "uint256",
          "name": "",
          "type": "uint256"
        }
      ],
      "stateMutability": "view",
      "type": "function"
    },
    {
      "inputs": [],
      "name": "oracle",
      "outputs": [
        {
          "internalType": "contract PriceOracle",
          "name": "",
          "type": "address"
        }
      ],
      "stateMutability": "view",
      "type": "function"
    },
    {
      "inputs": [],
      "name": "scale",
      "outputs": [
        {
          "internalType": "uint256",
          "name": "",
          "type": "uint256"
        }
      ],
      "stateMutability": "view",
      "type": "function"
    },
    {
      "inputs": [
        {
          "internalType": "address",
          "name": "newAdmin",
          "type": "address"
        }
      ],
      "name": "setAdmin",
      "outputs": [],
      "stateMutability": "nonpayable",
      "type": "function"
    },
    {
      "inputs": [
        {
          "internalType": "address",
          "name": "oracle_",
          "type": "address"
        }
      ],
      "name": "setOracle",
      "outputs": [],
      "stateMutability": "nonpayable",
      "type": "function"
    },
    {
      "inputs": [],
      "name": "updateBaseRate",
      "outputs": [],
      "stateMutability": "nonpayable",
      "type": "function"
    },
    {
      "inputs": [],
      "name": "updateFrequency",
      "outputs": [
        {
          "internalType": "uint256",
          "name": "",
          "type": "uint256"
        }
      ],
      "stateMutability": "view",
      "type": "function"
    }
  ],
  "transactionHash": "0x0f69dd0747be26d7bfe68403922c210d27c791b67f1a69acbacd224aeed8702b",
  "args": [
    "20000000000000000"
  ],
  "numDeployments": 1,
  "solcInputHash": "ed32bda1e8ee7c1e01355cdbba45d1b0",
  "bytecode": "0x608060405261546060075534801561001657600080fd5b5060405162000ebe38038062000ebe8339810160408190526100379161013b565b80600381905550610058625035da826100ac60201b61091b1790919060201c565b60048190556040519081527f482980278ae2c1b5635532c44722d084a208f79b8f4212a3fc8e6042901552cb9060200160405180910390a150600a80546001600160a01b03191633179055436002556101cb565b60006100f483836040518060400160405280601a81526020017f536166654d6174683a206469766973696f6e206279207a65726f0000000000008152506100fb60201b60201c565b9392505050565b600081836101255760405162461bcd60e51b815260040161011c9190610154565b60405180910390fd5b50600061013284866101a9565b95945050505050565b60006020828403121561014d57600080fd5b5051919050565b600060208083528351808285015260005b8181101561018157858101830151858201604001528201610165565b81811115610193576000604083870101525b50601f01601f1916929092016040019392505050565b6000826101c657634e487b7160e01b600052601260045260246000fd5b500490565b610ce380620001db6000396000f3fe608060405234801561001057600080fd5b50600436106101425760003560e01c80637adbf973116100b8578063de3f94851161007c578063de3f948514610283578063e9a213191461028c578063ec342ad014610294578063f14039de146102a3578063f51e181a146102ac578063f7f7fc5f146102b557600080fd5b80637adbf973146102105780637dc0d1d014610223578063a218141b1461024e578063b816881614610257578063d08c96fc1461027057600080fd5b8063313ce5671161010a578063313ce567146101b2578063477caf6b146101bb578063485cc955146101ce5780634930e038146101e1578063673ea086146101f4578063704b6c02146101fd57600080fd5b80630984dea41461014757806315f24053146101645780632191f92a1461017c57806324d6f333146101945780632d349a94146101a9575b600080fd5b610151625035da81565b6040519081526020015b60405180910390f35b61015161017236600461099d565b6004549392505050565b610184600181565b604051901515815260200161015b565b6101a76101a23660046109c9565b6102be565b005b61015160055481565b61015160005481565b6101a76101c93660046109c9565b610377565b6101a76101dc3660046109fa565b610427565b6101a76101ef3660046109c9565b6105e9565b61015160075481565b6101a761020b366004610a33565b61068d565b6101a761021e366004610a33565b6106dc565b600854610236906001600160a01b031681565b6040516001600160a01b03909116815260200161015b565b61015160025481565b610151610265366004610a57565b600454949350505050565b600954610236906001600160a01b031681565b61015160035481565b6101a7610763565b610151670de0b6b3a764000081565b61015160045481565b61015160015481565b61015160065481565b600a546001600160a01b031633146103315760405162461bcd60e51b815260206004820152602b60248201527f6f6e6c79207468652061646d696e206d6179207365742074686520757064617460448201526a65206672657175656e637960a81b60648201526084015b60405180910390fd5b600780549082905560408051828152602081018490527f24eb712b5908e642132e2dd0ee4c85e189162ea03242c80f82d94db64f2ba9d191015b60405180910390a15050565b600a546001600160a01b031633146103e95760405162461bcd60e51b815260206004820152602f60248201527f6f6e6c79207468652061646d696e206d617920736574207468652061646a757360448201526e1d195c8818dbd959999a58da595b9d608a1b6064820152608401610328565b600580549082905560408051828152602081018490527fae1920adb21e7676257fad295b40649a2bea63dc815e66532950aba41e2d4fee910161036b565b6008546001600160a01b031615801561044957506009546001600160a01b0316155b61045257600080fd5b600a546001600160a01b0316331461047f5760405163c0d4daef60e01b8152336004820152602401610328565b600854600980546001600160a01b0319166001600160a01b0385811691821790925560408051636f307dc360e01b8152905192909316929091636f307dc3916004808201926020929091908290030181865afa1580156104e3573d6000803e3d6000fd5b505050506040513d601f19601f820116820180604052508101906105079190610a89565b6001600160a01b031663313ce5676040518163ffffffff1660e01b8152600401602060405180830381865afa158015610544573d6000803e3d6000fd5b505050506040513d601f19601f820116820180604052508101906105689190610aa6565b60ff16600081905561057b906012610adf565b61058690600a610bda565b600155600880546001600160a01b0319166001600160a01b0384811691821790925560408051928416835260208301919091527fd52b2b9b7e9ee655fcb95d2e5b9e0c9f69e7ef2b8e9d2d0ea78402d576d22e22910160405180910390a1505050565b600a546001600160a01b0316331461064f5760405162461bcd60e51b8152602060048201526024808201527f6f6e6c79207468652061646d696e206d617920736574207468652062617365206044820152637261746560e01b6064820152608401610328565b600380549082905560408051828152602081018490527f725ddbfd43744d5aa9deca7b3f1d89f8d0ab476b969a23d69d083f5b37d99436910161036b565b600a546001600160a01b031633146106ba5760405163c0d4daef60e01b8152336004820152602401610328565b600a80546001600160a01b0319166001600160a01b0392909216919091179055565b600a546001600160a01b031633146107095760405163c0d4daef60e01b8152336004820152602401610328565b600880546001600160a01b038381166001600160a01b031983168117909355604080519190921680825260208201939093527fd52b2b9b7e9ee655fcb95d2e5b9e0c9f69e7ef2b8e9d2d0ea78402d576d22e22910161036b565b60025443906000906107759083610adf565b90506007548111156109175760015460085460095460405163fc57d4df60e01b81526001600160a01b03918216600482015260009392919091169063fc57d4df90602401602060405180830381865afa1580156107d6573d6000803e3d6000fd5b505050506040513d601f19601f820116820180604052508101906107fa9190610be6565b6108049190610bff565b905060008161081b670de0b6b3a764000080610c21565b6108259190610bff565b9050600081670de0b6b3a764000010156108505761084b670de0b6b3a764000083610adf565b610862565b61086282670de0b6b3a7640000610adf565b90506000670de0b6b3a76400006005548361087d9190610c21565b6108879190610bff565b90506000600354826108999190610c40565b9050670de0b6b3a76400008411156108c1576003548210156108bc5760006108be565b805b90505b60038190556108d381625035da61091b565b60045560028790556003546040519081527f482980278ae2c1b5635532c44722d084a208f79b8f4212a3fc8e6042901552cb9060200160405180910390a150505050505b5050565b600061095d83836040518060400160405280601a81526020017f536166654d6174683a206469766973696f6e206279207a65726f000000000000815250610966565b90505b92915050565b600081836109875760405162461bcd60e51b81526004016103289190610c58565b5060006109948486610bff565b95945050505050565b6000806000606084860312156109b257600080fd5b505081359360208301359350604090920135919050565b6000602082840312156109db57600080fd5b5035919050565b6001600160a01b03811681146109f757600080fd5b50565b60008060408385031215610a0d57600080fd5b8235610a18816109e2565b91506020830135610a28816109e2565b809150509250929050565b600060208284031215610a4557600080fd5b8135610a50816109e2565b9392505050565b60008060008060808587031215610a6d57600080fd5b5050823594602084013594506040840135936060013592509050565b600060208284031215610a9b57600080fd5b8151610a50816109e2565b600060208284031215610ab857600080fd5b815160ff81168114610a5057600080fd5b634e487b7160e01b600052601160045260246000fd5b600082821015610af157610af1610ac9565b500390565b600181815b80851115610b31578160001904821115610b1757610b17610ac9565b80851615610b2457918102915b93841c9390800290610afb565b509250929050565b600082610b4857506001610960565b81610b5557506000610960565b8160018114610b6b5760028114610b7557610b91565b6001915050610960565b60ff841115610b8657610b86610ac9565b50506001821b610960565b5060208310610133831016604e8410600b8410161715610bb4575081810a610960565b610bbe8383610af6565b8060001904821115610bd257610bd2610ac9565b029392505050565b600061095d8383610b39565b600060208284031215610bf857600080fd5b5051919050565b600082610c1c57634e487b7160e01b600052601260045260246000fd5b500490565b6000816000190483118215151615610c3b57610c3b610ac9565b500290565b60008219821115610c5357610c53610ac9565b500190565b600060208083528351808285015260005b81811015610c8557858101830151858201604001528201610c69565b81811115610c97576000604083870101525b50601f01601f191692909201604001939250505056fea26469706673582212204b5282744e20df6a776737c70dfc7c4f16ff7d31ad132485899aaee29a73214964736f6c634300080b0033",
  "devdoc": {
    "author": "canto",
    "kind": "dev",
    "methods": {
      "_setAdjusterCoefficient(uint256)": {
        "details": "Admin function to set per-market adjuster coefficient",
        "params": {
          "newAdjusterCoefficient": "The new adjuster coefficient, scaled by 1e18"
        }
      },
      "_setBaseRatePerYear(uint256)": {
        "details": "Admin function to set per-market base interest rate",
        "params": {
          "newBaseRateMantissa": "The new base interest rate, scaled by 1e18"
        }
      },
      "_setUpdateFrequency(uint256)": {
        "details": "Admin function to set the update frequency",
        "params": {
          "newUpdateFrequency": "The new update frequency, in seconds"
        }
      },
      "constructor": {
        "params": {
          "_baseRatePerYear": "The approximate target base APR, as a mantissa (scaled by 1e18), set by admin, default 2%"
        }
      },
      "getBorrowRate(uint256,uint256,uint256)": {
        "params": {
          "borrows": "The total amount of borrows the market has outstanding",
          "cash": "The total amount of cash the market has",
          "reserves": "The total amount of reserves the market has"
        },
        "returns": {
          "_0": "The borrow rate per block (as a percentage, and scaled by 1e18)"
        }
      },
      "getSupplyRate(uint256,uint256,uint256,uint256)": {
        "returns": {
          "_0": "Note's supply rate percentage per block as a mantissa (scaled by 1e18)"
        }
      }
    },
    "title": "note's interest rate model contract",
    "version": 1
  },
  "userdoc": {
    "errors": {
      "FailedPriceRetrieval(address)": [
        {
          "notice": "reverted if the getUnderlying Price fails "
        }
      ],
      "SenderNotAdmin(address)": [
        {
          "notice": "reverted if sender is not admin"
        }
      ]
    },
    "events": {
      "NewAdjusterCoefficient(uint256,uint256)": {
        "notice": "Emitted when adjuster coefficient is changed by admin"
      },
      "NewAdmin(address,address)": {
        "notice": "Emitted when new admin is set"
      },
      "NewBaseRate(uint256,uint256)": {
        "notice": "Emitted when base rate is changed by admin"
      },
      "NewInterestParams(uint256)": {
        "notice": "Emitted when new baserateperblock is set"
      },
      "NewPriceOracle(address,address)": {
        "notice": "Emitted when new PriceOracle is set"
      },
      "NewUpdateFrequency(uint256,uint256)": {
        "notice": "Emitted when update frequency is changed by admin"
      }
    },
    "kind": "user",
    "methods": {
      "BlocksPerYear()": {
        "notice": "The approximate number of blocks per year that is assumed by the interest rate model"
      },
      "_setAdjusterCoefficient(uint256)": {
        "notice": "Sets the adjuster coefficient for Note"
      },
      "_setBaseRatePerYear(uint256)": {
        "notice": "Sets the base interest rate for Note"
      },
      "_setUpdateFrequency(uint256)": {
        "notice": "Sets the update frequency for Note's interest rate"
      },
      "adjusterCoefficient()": {
        "notice": "The level of aggressiveness to adjust interest rate according to twap's deviation from the peg"
      },
      "baseRatePerBlock()": {
        "notice": "baseRatePerBlock The per block interest rate, as a mantissa (scaled by 1e18)"
      },
      "baseRatePerYear()": {
        "notice": "baseRatePerYear The per year interest rate, as a mantissa (scaled by 1e18)"
      },
      "cUsdc()": {
        "notice": "The CToken identifier for Note"
      },
      "constructor": {
        "notice": "Construct an interest rate model"
      },
      "getBorrowRate(uint256,uint256,uint256)": {
        "notice": "Calculates the current borrow interest rate per block"
      },
      "getSupplyRate(uint256,uint256,uint256,uint256)": {
        "notice": "Calculates the current supply rate per block, which is the same as the borrow rateThe following parameters are irrelevent for calculating Note's interest rate. They are passed in to align with the standard function definition `getSupplyRate` in InterestRateModel"
      },
      "isInterestRateModel()": {
        "notice": "Indicator that this is an InterestRateModel contract (for inspection)"
      },
      "lastUpdateBlock()": {
        "notice": "The variable to keep track of the last update on Note's interest rate, initialized at the current block number"
      },
      "updateBaseRate()": {
        "notice": "Updates the Note's base rate per year at a given interval (Update Frequency)This interest rate is calculated as follows f(x) = max(0, (1 - $NOTE) * adjusterCoefficient + priorInterestRate ) If Note is trading above 1$ then lower the interest rate to benefit suppliers This function is called in accrue Interest by the cNote Contract "
      },
      "updateFrequency()": {
        "notice": "The frequency of updating Note's base rate"
      }
    },
    "version": 1
  },
  "storageLayout": {
    "storage": [
      {
        "astId": 20612,
        "contract": "src/NoteInterest.sol:NoteRateModel",
        "label": "decimals",
        "offset": 0,
        "slot": "0",
        "type": "t_uint256"
      },
      {
        "astId": 20614,
        "contract": "src/NoteInterest.sol:NoteRateModel",
        "label": "scale",
        "offset": 0,
        "slot": "1",
        "type": "t_uint256"
      },
      {
        "astId": 20617,
        "contract": "src/NoteInterest.sol:NoteRateModel",
        "label": "lastUpdateBlock",
        "offset": 0,
        "slot": "2",
        "type": "t_uint256"
      },
      {
        "astId": 20620,
        "contract": "src/NoteInterest.sol:NoteRateModel",
        "label": "baseRatePerYear",
        "offset": 0,
        "slot": "3",
        "type": "t_uint256"
      },
      {
        "astId": 20623,
        "contract": "src/NoteInterest.sol:NoteRateModel",
        "label": "baseRatePerBlock",
        "offset": 0,
        "slot": "4",
        "type": "t_uint256"
      },
      {
        "astId": 20626,
        "contract": "src/NoteInterest.sol:NoteRateModel",
        "label": "adjusterCoefficient",
        "offset": 0,
        "slot": "5",
        "type": "t_uint256"
      },
      {
        "astId": 20628,
        "contract": "src/NoteInterest.sol:NoteRateModel",
        "label": "dolValue",
        "offset": 0,
        "slot": "6",
        "type": "t_uint256"
      },
      {
        "astId": 20632,
        "contract": "src/NoteInterest.sol:NoteRateModel",
        "label": "updateFrequency",
        "offset": 0,
        "slot": "7",
        "type": "t_uint256"
      },
      {
        "astId": 20635,
        "contract": "src/NoteInterest.sol:NoteRateModel",
        "label": "oracle",
        "offset": 0,
        "slot": "8",
        "type": "t_contract(PriceOracle)21102"
      },
      {
        "astId": 20639,
        "contract": "src/NoteInterest.sol:NoteRateModel",
        "label": "cUsdc",
        "offset": 0,
        "slot": "9",
        "type": "t_contract(CErc20)2096"
      },
      {
        "astId": 20642,
        "contract": "src/NoteInterest.sol:NoteRateModel",
        "label": "admin",
        "offset": 0,
        "slot": "10",
        "type": "t_address"
      }
    ],
    "types": {
      "t_address": {
        "encoding": "inplace",
        "label": "address",
        "numberOfBytes": "20"
      },
      "t_contract(CErc20)2096": {
        "encoding": "inplace",
        "label": "contract CErc20",
        "numberOfBytes": "20"
      },
      "t_contract(PriceOracle)21102": {
        "encoding": "inplace",
        "label": "contract PriceOracle",
        "numberOfBytes": "20"
      },
      "t_uint256": {
        "encoding": "inplace",
        "label": "uint256",
        "numberOfBytes": "32"
      }
    }
  }
}