{
  "address": "0x2f744cfAcef034775C96ba009229cA3F8579C7C7",
  "abi": [
    {
      "inputs": [
        {
          "internalType": "address",
          "name": "note_",
          "type": "address"
        },
        {
          "internalType": "address",
          "name": "implementation_",
          "type": "address"
        },
        {
          "internalType": "address",
          "name": "admin_",
          "type": "address"
        }
      ],
      "stateMutability": "nonpayable",
      "type": "constructor"
    },
    {
      "inputs": [],
      "name": "FailedInitialization",
      "type": "error"
    },
    {
      "inputs": [
        {
          "internalType": "uint256",
          "name": "balance",
          "type": "uint256"
        },
        {
          "internalType": "uint256",
          "name": "funds",
          "type": "uint256"
        }
      ],
      "name": "InsufficientFunds",
      "type": "error"
    },
    {
      "inputs": [],
      "name": "InvalidAddress",
      "type": "error"
    },
    {
      "inputs": [
        {
          "internalType": "string",
          "name": "denom",
          "type": "string"
        }
      ],
      "name": "InvalidDenom",
      "type": "error"
    },
    {
      "inputs": [
        {
          "internalType": "uint256",
          "name": "amount",
          "type": "uint256"
        }
      ],
      "name": "SendFundError",
      "type": "error"
    },
    {
      "inputs": [
        {
          "internalType": "address",
          "name": "sender",
          "type": "address"
        }
      ],
      "name": "SenderNotAdmin",
      "type": "error"
    },
    {
      "anonymous": false,
      "inputs": [
        {
          "indexed": false,
          "internalType": "address",
          "name": "oldAdmin",
          "type": "address"
        },
        {
          "indexed": false,
          "internalType": "address",
          "name": "admin",
          "type": "address"
        }
      ],
      "name": "NewAdmin",
      "type": "event"
    },
    {
      "anonymous": false,
      "inputs": [
        {
          "indexed": false,
          "internalType": "address",
          "name": "oldImplementation",
          "type": "address"
        },
        {
          "indexed": false,
          "internalType": "address",
          "name": "newImplementation",
          "type": "address"
        }
      ],
      "name": "NewImplementation",
      "type": "event"
    },
    {
      "anonymous": false,
      "inputs": [
        {
          "indexed": false,
          "internalType": "address",
          "name": "oldPendingAdmin",
          "type": "address"
        },
        {
          "indexed": false,
          "internalType": "address",
          "name": "newPendingAdmin",
          "type": "address"
        }
      ],
      "name": "NewPendingAdmin",
      "type": "event"
    },
    {
      "anonymous": false,
      "inputs": [
        {
          "indexed": false,
          "internalType": "address",
          "name": "sender",
          "type": "address"
        },
        {
          "indexed": false,
          "internalType": "uint256",
          "name": "amount",
          "type": "uint256"
        }
      ],
      "name": "Received",
      "type": "event"
    },
    {
      "stateMutability": "payable",
      "type": "fallback"
    },
    {
      "inputs": [],
      "name": "_acceptAdmin",
      "outputs": [],
      "stateMutability": "nonpayable",
      "type": "function"
    },
    {
      "inputs": [
        {
          "internalType": "address",
          "name": "newPendingAdmin",
          "type": "address"
        }
      ],
      "name": "_setPendingAdmin",
      "outputs": [],
      "stateMutability": "nonpayable",
      "type": "function"
    },
    {
      "inputs": [],
      "name": "admin",
      "outputs": [
        {
          "internalType": "address",
          "name": "",
          "type": "address"
        }
      ],
      "stateMutability": "view",
      "type": "function"
    },
    {
      "inputs": [
        {
          "internalType": "bytes",
          "name": "data",
          "type": "bytes"
        }
      ],
      "name": "delegateToImplementation",
      "outputs": [
        {
          "internalType": "bytes",
          "name": "",
          "type": "bytes"
        }
      ],
      "stateMutability": "nonpayable",
      "type": "function"
    },
    {
      "inputs": [
        {
          "internalType": "bytes",
          "name": "data",
          "type": "bytes"
        }
      ],
      "name": "delegateToViewImplementation",
      "outputs": [
        {
          "internalType": "bytes",
          "name": "",
          "type": "bytes"
        }
      ],
      "stateMutability": "view",
      "type": "function"
    },
    {
      "inputs": [],
      "name": "implementation",
      "outputs": [
        {
          "internalType": "address",
          "name": "",
          "type": "address"
        }
      ],
      "stateMutability": "view",
      "type": "function"
    },
    {
      "inputs": [],
      "name": "note",
      "outputs": [
        {
          "internalType": "contract EIP20Interface",
          "name": "",
          "type": "address"
        }
      ],
      "stateMutability": "view",
      "type": "function"
    },
    {
      "inputs": [],
      "name": "pendingAdmin",
      "outputs": [
        {
          "internalType": "address",
          "name": "",
          "type": "address"
        }
      ],
      "stateMutability": "view",
      "type": "function"
    },
    {
      "inputs": [],
      "name": "queryCantoBalance",
      "outputs": [
        {
          "internalType": "uint256",
          "name": "",
          "type": "uint256"
        }
      ],
      "stateMutability": "view",
      "type": "function"
    },
    {
      "inputs": [],
      "name": "queryNoteBalance",
      "outputs": [
        {
          "internalType": "uint256",
          "name": "",
          "type": "uint256"
        }
      ],
      "stateMutability": "view",
      "type": "function"
    },
    {
      "inputs": [
        {
          "internalType": "address",
          "name": "cNote",
          "type": "address"
        },
        {
          "internalType": "uint256",
          "name": "cTokens",
          "type": "uint256"
        }
      ],
      "name": "redeem",
      "outputs": [],
      "stateMutability": "nonpayable",
      "type": "function"
    },
    {
      "inputs": [
        {
          "internalType": "address",
          "name": "recipient",
          "type": "address"
        },
        {
          "internalType": "uint256",
          "name": "amount",
          "type": "uint256"
        },
        {
          "internalType": "string",
          "name": "denom",
          "type": "string"
        }
      ],
      "name": "sendFund",
      "outputs": [],
      "stateMutability": "nonpayable",
      "type": "function"
    },
    {
      "inputs": [
        {
          "internalType": "address",
          "name": "implementation_",
          "type": "address"
        }
      ],
      "name": "setImplementation",
      "outputs": [],
      "stateMutability": "nonpayable",
      "type": "function"
    },
    {
      "inputs": [],
      "name": "unigov",
      "outputs": [
        {
          "internalType": "contract IProposal",
          "name": "",
          "type": "address"
        }
      ],
      "stateMutability": "view",
      "type": "function"
    },
    {
      "stateMutability": "payable",
      "type": "receive"
    }
  ],
  "transactionHash": "0x3ce9fccb9f008ca9c0a2f9b991d2d5133551c5b2d068674d35dca029f79b3210",
  "args": [
    "0xD354EFE7F59A727BD988252726D86D6dd8d19547",
    "0x999b9f7A0fd92333BfcaeC4939D3b29176874C94",
    "0x2fA8e44e9A3D833019FCc52D62B4dD05125cA1b1"
  ],
  "numDeployments": 1,
  "solcInputHash": "ed32bda1e8ee7c1e01355cdbba45d1b0",
  "bytecode": "0x60806040523480156200001157600080fd5b506040516200103c3803806200103c8339810160408190526200003491620002e8565b6001600160a01b0381166200004857600080fd5b6000836001600160a01b03163b116200006057600080fd5b600180546001600160a01b031916331790556040516001600160a01b0384166024820152620000c290839060440160408051601f198184030181529190526020810180516001600160e01b0390811663189acdbd60e31b17909152620000f716565b50620000ce8262000176565b600180546001600160a01b0319166001600160a01b039290921691909117905550620003709050565b6060600080846001600160a01b03168460405162000116919062000332565b600060405180830381855af49150503d806000811462000153576040519150601f19603f3d011682016040523d82523d6000602084013e62000158565b606091505b509150915060008214156200016e573d60208201fd5b949350505050565b6001546001600160a01b03163314620001eb5760405162461bcd60e51b815260206004820152603560248201526000805160206200101c83398151915260448201527f6d656e746174696f6e3a2061646d696e206f6e6c79000000000000000000000060648201526084015b60405180910390fd5b6001600160a01b0381166200026a5760405162461bcd60e51b815260206004820152604960248201526000805160206200101c83398151915260448201527f6d656e746174696f6e3a20696e76616c696420696d706c656d656e746174696f6064820152686e206164647265737360b81b608482015260a401620001e2565b600280546001600160a01b038381166001600160a01b031983168117909355604080519190921680825260208201939093527fd604de94d45953f9138079ec1b82d533cb2160c906d1076d1f7ed54befbca97a910160405180910390a15050565b80516001600160a01b0381168114620002e357600080fd5b919050565b600080600060608486031215620002fe57600080fd5b6200030984620002cb565b92506200031960208501620002cb565b91506200032960408501620002cb565b90509250925092565b6000825160005b8181101562000355576020818601810151858301520162000339565b8181111562000365576000828501525b509190910192915050565b610c9c80620003806000396000f3fe6080604052600436106100e15760003560e01c80635c60da1b1161007f578063b71d1a0c11610059578063b71d1a0c14610378578063d784d42614610398578063e9c714f2146103b8578063f851a440146103cd57610120565b80635c60da1b146103185780637b26673c14610338578063864392181461035857610120565b80631e9a6950116100bb5780631e9a69501461027e57806326782247146102a057806326d111f5146102d85780634487152f146102f857610120565b806303cc29a5146102145780630933c1ed1461023c5780631ce78bb21461026957610120565b3661012057604080513381523460208201527f88a5966d370b9919b20f3e2c13ff65706f196a4e32cc2c12bf57088f88525874910160405180910390a1005b34156101995760405162461bcd60e51b815260206004820152603960248201527f547265617375727944656c656761746f723a3a66616c6c6261636b3a63616e6e60448201527f6f742073656e642076616c756520746f2066616c6c6261636b0000000000000060648201526084015b60405180910390fd5b6002546040516000916001600160a01b0316906101b99083903690610921565b600060405180830381855af49150503d80600081146101f4576040519150601f19603f3d011682016040523d82523d6000602084013e6101f9565b606091505b505090506040513d6000823e818015610210573d82f35b3d82fd5b34801561022057600080fd5b506102296103ed565b6040519081526020015b60405180910390f35b34801561024857600080fd5b5061025c6102573660046109a0565b610440565b6040516102339190610a50565b34801561027557600080fd5b5061022961045f565b34801561028a57600080fd5b5061029e610299366004610a9f565b610496565b005b3480156102ac57600080fd5b506000546102c0906001600160a01b031681565b6040516001600160a01b039091168152602001610233565b3480156102e457600080fd5b506003546102c0906001600160a01b031681565b34801561030457600080fd5b5061025c6103133660046109a0565b6104ea565b34801561032457600080fd5b506002546102c0906001600160a01b031681565b34801561034457600080fd5b5061029e610353366004610ac9565b6105b0565b34801561036457600080fd5b506004546102c0906001600160a01b031681565b34801561038457600080fd5b5061029e610393366004610b50565b610600565b3480156103a457600080fd5b5061029e6103b3366004610b50565b6106a6565b3480156103c457600080fd5b5061029e61080d565b3480156103d957600080fd5b506001546102c0906001600160a01b031681565b6040805160048152602481019091526020810180516001600160e01b03166303cc29a560e01b1790526000908190610424906104ea565b90508080602001905181019061043a9190610b72565b91505090565b600254606090610459906001600160a01b0316836108af565b92915050565b6040805160048152602481019091526020810180516001600160e01b0316630e73c5d960e11b1790526000908190610424906104ea565b6040516001600160a01b0383166024820152604481018290526104e59060640160408051601f198184030181529190526020810180516001600160e01b03166301e9a69560e41b179052610440565b505050565b6060600080306001600160a01b03168460405160240161050a9190610a50565b60408051601f198184030181529181526020820180516001600160e01b0316630933c1ed60e01b1790525161053f9190610b8b565b600060405180830381855afa9150503d806000811461057a576040519150601f19603f3d011682016040523d82523d6000602084013e61057f565b606091505b50915091506000821415610594573d60208201fd5b808060200190518101906105a89190610ba7565b949350505050565b6105f9848484846040516024016105ca9493929190610c1e565b60408051601f198184030181529190526020810180516001600160e01b0316631ec999cf60e21b179052610440565b5050505050565b6001546001600160a01b0316331461065a5760405162461bcd60e51b815260206004820152601d60248201527f547265617375727944656c656761746f723a3a61646d696e206f6e6c790000006044820152606401610190565b6040516001600160a01b03821660248201526106a29060440160408051601f198184030181529190526020810180516001600160e01b0316632dc7468360e21b179052610440565b5050565b6001546001600160a01b0316331461071e5760405162461bcd60e51b815260206004820152603560248201527f476f7665726e6f72427261766f44656c656761746f723a3a736574496d706c656044820152746d656e746174696f6e3a2061646d696e206f6e6c7960581b6064820152608401610190565b6001600160a01b0381166107ac5760405162461bcd60e51b815260206004820152604960248201527f476f7665726e6f72427261766f44656c656761746f723a3a736574496d706c6560448201527f6d656e746174696f6e3a20696e76616c696420696d706c656d656e746174696f6064820152686e206164647265737360b81b608482015260a401610190565b600280546001600160a01b038381166001600160a01b031983168117909355604080519190921680825260208201939093527fd604de94d45953f9138079ec1b82d533cb2160c906d1076d1f7ed54befbca97a910160405180910390a15050565b6000546001600160a01b0316331461087a5760405162461bcd60e51b815260206004820152602a60248201527f547265617375727944656c656761746f723a3a73656e646572206e6f74207065604482015269373234b733a0b236b4b760b11b6064820152608401610190565b6040805160048152602481019091526020810180516001600160e01b03166374e38a7960e11b1790526108ac90610440565b50565b6060600080846001600160a01b0316846040516108cc9190610b8b565b600060405180830381855af49150503d8060008114610907576040519150601f19603f3d011682016040523d82523d6000602084013e61090c565b606091505b509150915060008214156105a8573d60208201fd5b8183823760009101908152919050565b634e487b7160e01b600052604160045260246000fd5b604051601f8201601f1916810167ffffffffffffffff8111828210171561097057610970610931565b604052919050565b600067ffffffffffffffff82111561099257610992610931565b50601f01601f191660200190565b6000602082840312156109b257600080fd5b813567ffffffffffffffff8111156109c957600080fd5b8201601f810184136109da57600080fd5b80356109ed6109e882610978565b610947565b818152856020838501011115610a0257600080fd5b81602084016020830137600091810160200191909152949350505050565b60005b83811015610a3b578181015183820152602001610a23565b83811115610a4a576000848401525b50505050565b6020815260008251806020840152610a6f816040850160208701610a20565b601f01601f19169190910160400192915050565b80356001600160a01b0381168114610a9a57600080fd5b919050565b60008060408385031215610ab257600080fd5b610abb83610a83565b946020939093013593505050565b60008060008060608587031215610adf57600080fd5b610ae885610a83565b935060208501359250604085013567ffffffffffffffff80821115610b0c57600080fd5b818701915087601f830112610b2057600080fd5b813581811115610b2f57600080fd5b886020828501011115610b4157600080fd5b95989497505060200194505050565b600060208284031215610b6257600080fd5b610b6b82610a83565b9392505050565b600060208284031215610b8457600080fd5b5051919050565b60008251610b9d818460208701610a20565b9190910192915050565b600060208284031215610bb957600080fd5b815167ffffffffffffffff811115610bd057600080fd5b8201601f81018413610be157600080fd5b8051610bef6109e882610978565b818152856020838501011115610c0457600080fd5b610c15826020830160208601610a20565b95945050505050565b6001600160a01b0385168152602081018490526060604082018190528101829052818360808301376000818301608090810191909152601f909201601f19160101939250505056fea2646970667358221220bc400c333dfd49ee30e817680ad19ac94106c224c54a9f79c1487da32aebdfed64736f6c634300080b0033476f7665726e6f72427261766f44656c656761746f723a3a736574496d706c65",
  "devdoc": {
    "kind": "dev",
    "methods": {
      "constructor": {
        "params": {
          "admin_": ", administrator of contract, generally speaking, will be Timelock",
          "implementation_": ", address of current implementation to delegate calls to",
          "note_": "address of Note ERC20 Contract to receive funds from"
        }
      },
      "delegateToImplementation(bytes)": {
        "details": "It returns to the external caller whatever the impledmentation returns or forwards reverts",
        "params": {
          "data": "The raw data to delegatecall"
        },
        "returns": {
          "_0": "bytes returned bytes from the delegater "
        }
      },
      "delegateToViewImplementation(bytes)": {
        "details": "It returns to the external caller whatever the implementation returns or forwards reverts  There are an additional 2 prefix uints from the wrapper returndata, which we ignore since we make an extra hop.",
        "params": {
          "data": "The raw data to delegatecall"
        },
        "returns": {
          "_0": "bytes returned bytes from the delegatecall"
        }
      },
      "queryCantoBalance()": {
        "returns": {
          "_0": "uint the canto balance"
        }
      },
      "queryNoteBalance()": {
        "returns": {
          "_0": "uint the note balance "
        }
      },
      "sendFund(address,uint256,string)": {
        "params": {
          "amount": "amount of funds to send to recipient",
          "denom": "denomination of funds to send",
          "recipient": "recipient of funds"
        }
      },
      "setImplementation(address)": {
        "params": {
          "implementation_": "The address of the new implementation for delegation"
        }
      }
    },
    "version": 1
  },
  "userdoc": {
    "kind": "user",
    "methods": {
      "delegateToImplementation(bytes)": {
        "notice": "Delegates execution to the implementation contract"
      },
      "delegateToViewImplementation(bytes)": {
        "notice": "Delegates execution to an implementation contract"
      },
      "queryCantoBalance()": {
        "notice": "Method to query current balance of CANTO in the treasury using a DELEGATECALL"
      },
      "queryNoteBalance()": {
        "notice": "Method to query current balance of NOTE in the treasury using a DELEGATECALL"
      },
      "sendFund(address,uint256,string)": {
        "notice": "Method to send funds to recipient using DELEGATECALL"
      },
      "setImplementation(address)": {
        "notice": "Method called by the admin to update the implementation of the delegator"
      }
    },
    "version": 1
  },
  "storageLayout": {
    "storage": [
      {
        "astId": 28977,
        "contract": "src/Treasury/TreasuryDelegator.sol:TreasuryDelegator",
        "label": "pendingAdmin",
        "offset": 0,
        "slot": "0",
        "type": "t_address"
      },
      {
        "astId": 28979,
        "contract": "src/Treasury/TreasuryDelegator.sol:TreasuryDelegator",
        "label": "admin",
        "offset": 0,
        "slot": "1",
        "type": "t_address"
      },
      {
        "astId": 28981,
        "contract": "src/Treasury/TreasuryDelegator.sol:TreasuryDelegator",
        "label": "implementation",
        "offset": 0,
        "slot": "2",
        "type": "t_address"
      },
      {
        "astId": 28987,
        "contract": "src/Treasury/TreasuryDelegator.sol:TreasuryDelegator",
        "label": "note",
        "offset": 0,
        "slot": "3",
        "type": "t_contract(EIP20Interface)15195"
      },
      {
        "astId": 28990,
        "contract": "src/Treasury/TreasuryDelegator.sol:TreasuryDelegator",
        "label": "unigov",
        "offset": 0,
        "slot": "4",
        "type": "t_contract(IProposal)18676"
      }
    ],
    "types": {
      "t_address": {
        "encoding": "inplace",
        "label": "address",
        "numberOfBytes": "20"
      },
      "t_contract(EIP20Interface)15195": {
        "encoding": "inplace",
        "label": "contract EIP20Interface",
        "numberOfBytes": "20"
      },
      "t_contract(IProposal)18676": {
        "encoding": "inplace",
        "label": "contract IProposal",
        "numberOfBytes": "20"
      }
    }
  }
}