{
  "address": "0x826551890Dc65655a0Aceca109aB11AbDbD7a07B",
  "abi": [
    {
      "inputs": [
        {
          "internalType": "string",
          "name": "name_",
          "type": "string"
        },
        {
          "internalType": "string",
          "name": "symbol_",
          "type": "string"
        }
      ],
      "stateMutability": "nonpayable",
      "type": "constructor"
    },
    {
      "anonymous": false,
      "inputs": [
        {
          "indexed": true,
          "internalType": "address",
          "name": "owner",
          "type": "address"
        },
        {
          "indexed": true,
          "internalType": "address",
          "name": "spender",
          "type": "address"
        },
        {
          "indexed": false,
          "internalType": "uint256",
          "name": "amount",
          "type": "uint256"
        }
      ],
      "name": "Approval",
      "type": "event"
    },
    {
      "anonymous": false,
      "inputs": [
        {
          "indexed": true,
          "internalType": "address",
          "name": "dst",
          "type": "address"
        },
        {
          "indexed": false,
          "internalType": "uint256",
          "name": "wad",
          "type": "uint256"
        }
      ],
      "name": "Deposit",
      "type": "event"
    },
    {
      "anonymous": false,
      "inputs": [
        {
          "indexed": true,
          "internalType": "address",
          "name": "from",
          "type": "address"
        },
        {
          "indexed": true,
          "internalType": "address",
          "name": "to",
          "type": "address"
        },
        {
          "indexed": false,
          "internalType": "uint256",
          "name": "amount",
          "type": "uint256"
        }
      ],
      "name": "Transfer",
      "type": "event"
    },
    {
      "anonymous": false,
      "inputs": [
        {
          "indexed": true,
          "internalType": "address",
          "name": "src",
          "type": "address"
        },
        {
          "indexed": false,
          "internalType": "uint256",
          "name": "wad",
          "type": "uint256"
        }
      ],
      "name": "Withdrawal",
      "type": "event"
    },
    {
      "inputs": [
        {
          "internalType": "address",
          "name": "",
          "type": "address"
        },
        {
          "internalType": "address",
          "name": "",
          "type": "address"
        }
      ],
      "name": "_allowance",
      "outputs": [
        {
          "internalType": "uint256",
          "name": "",
          "type": "uint256"
        }
      ],
      "stateMutability": "view",
      "type": "function"
    },
    {
      "inputs": [
        {
          "internalType": "address",
          "name": "",
          "type": "address"
        }
      ],
      "name": "_balanceOf",
      "outputs": [
        {
          "internalType": "uint256",
          "name": "",
          "type": "uint256"
        }
      ],
      "stateMutability": "view",
      "type": "function"
    },
    {
      "inputs": [
        {
          "internalType": "address",
          "name": "owner",
          "type": "address"
        },
        {
          "internalType": "address",
          "name": "spender",
          "type": "address"
        }
      ],
      "name": "allowance",
      "outputs": [
        {
          "internalType": "uint256",
          "name": "",
          "type": "uint256"
        }
      ],
      "stateMutability": "view",
      "type": "function"
    },
    {
      "inputs": [
        {
          "internalType": "address",
          "name": "spender",
          "type": "address"
        },
        {
          "internalType": "uint256",
          "name": "amount",
          "type": "uint256"
        }
      ],
      "name": "approve",
      "outputs": [
        {
          "internalType": "bool",
          "name": "",
          "type": "bool"
        }
      ],
      "stateMutability": "nonpayable",
      "type": "function"
    },
    {
      "inputs": [
        {
          "internalType": "address",
          "name": "owner",
          "type": "address"
        }
      ],
      "name": "balanceOf",
      "outputs": [
        {
          "internalType": "uint256",
          "name": "",
          "type": "uint256"
        }
      ],
      "stateMutability": "view",
      "type": "function"
    },
    {
      "inputs": [],
      "name": "decimals",
      "outputs": [
        {
          "internalType": "uint8",
          "name": "",
          "type": "uint8"
        }
      ],
      "stateMutability": "view",
      "type": "function"
    },
    {
      "inputs": [],
      "name": "deposit",
      "outputs": [],
      "stateMutability": "payable",
      "type": "function"
    },
    {
      "inputs": [],
      "name": "name",
      "outputs": [
        {
          "internalType": "string",
          "name": "",
          "type": "string"
        }
      ],
      "stateMutability": "view",
      "type": "function"
    },
    {
      "inputs": [],
      "name": "symbol",
      "outputs": [
        {
          "internalType": "string",
          "name": "",
          "type": "string"
        }
      ],
      "stateMutability": "view",
      "type": "function"
    },
    {
      "inputs": [],
      "name": "totalSupply",
      "outputs": [
        {
          "internalType": "uint256",
          "name": "",
          "type": "uint256"
        }
      ],
      "stateMutability": "view",
      "type": "function"
    },
    {
      "inputs": [
        {
          "internalType": "address",
          "name": "dst",
          "type": "address"
        },
        {
          "internalType": "uint256",
          "name": "wad",
          "type": "uint256"
        }
      ],
      "name": "transfer",
      "outputs": [
        {
          "internalType": "bool",
          "name": "",
          "type": "bool"
        }
      ],
      "stateMutability": "nonpayable",
      "type": "function"
    },
    {
      "inputs": [
        {
          "internalType": "address",
          "name": "src",
          "type": "address"
        },
        {
          "internalType": "address",
          "name": "dst",
          "type": "address"
        },
        {
          "internalType": "uint256",
          "name": "wad",
          "type": "uint256"
        }
      ],
      "name": "transferFrom",
      "outputs": [
        {
          "internalType": "bool",
          "name": "",
          "type": "bool"
        }
      ],
      "stateMutability": "nonpayable",
      "type": "function"
    },
    {
      "inputs": [
        {
          "internalType": "uint256",
          "name": "wamount",
          "type": "uint256"
        }
      ],
      "name": "withdraw",
      "outputs": [],
      "stateMutability": "nonpayable",
      "type": "function"
    },
    {
      "stateMutability": "payable",
      "type": "receive"
    }
  ],
  "transactionHash": "0x11467dbe90834d64f81b8a599087d3ab14ec0a5965944cf9360a4c61848935cf",
  "args": [
    "wCanto",
    "WCANTO"
  ],
  "numDeployments": 1,
  "solcInputHash": "ed32bda1e8ee7c1e01355cdbba45d1b0",
  "bytecode": "0x60806040526002805460ff191660121790553480156200001e57600080fd5b5060405162000d1c38038062000d1c8339810160408190526200004191620001e8565b81516200005690600090602085019062000075565b5080516200006c90600190602084019062000075565b5050506200028f565b828054620000839062000252565b90600052602060002090601f016020900481019282620000a75760008555620000f2565b82601f10620000c257805160ff1916838001178555620000f2565b82800160010185558215620000f2579182015b82811115620000f2578251825591602001919060010190620000d5565b506200010092915062000104565b5090565b5b8082111562000100576000815560010162000105565b634e487b7160e01b600052604160045260246000fd5b600082601f8301126200014357600080fd5b81516001600160401b03808211156200016057620001606200011b565b604051601f8301601f19908116603f011681019082821181831017156200018b576200018b6200011b565b81604052838152602092508683858801011115620001a857600080fd5b600091505b83821015620001cc5785820183015181830184015290820190620001ad565b83821115620001de5760008385830101525b9695505050505050565b60008060408385031215620001fc57600080fd5b82516001600160401b03808211156200021457600080fd5b620002228683870162000131565b935060208501519150808211156200023957600080fd5b50620002488582860162000131565b9150509250929050565b600181811c908216806200026757607f821691505b602082108114156200028957634e487b7160e01b600052602260045260246000fd5b50919050565b610a7d806200029f6000396000f3fe6080604052600436106100c65760003560e01c806370a082311161007f578063cca3e83211610059578063cca3e8321461021f578063d0e30db01461024c578063dd336c1214610254578063dd62ed3e1461028c57600080fd5b806370a08231146101b457806395d89b41146101ea578063a9059cbb146101ff57600080fd5b806306fdde03146100da578063095ea7b31461010557806318160ddd1461013557806323b872dd146101525780632e1a7d4d14610172578063313ce5671461019257600080fd5b366100d5576100d36102d2565b005b600080fd5b3480156100e657600080fd5b506100ef61032d565b6040516100fc9190610889565b60405180910390f35b34801561011157600080fd5b506101256101203660046108fa565b6103bf565b60405190151581526020016100fc565b34801561014157600080fd5b50475b6040519081526020016100fc565b34801561015e57600080fd5b5061012561016d366004610924565b610415565b34801561017e57600080fd5b506100d361018d366004610960565b610646565b34801561019e57600080fd5b5060025460405160ff90911681526020016100fc565b3480156101c057600080fd5b506101446101cf366004610979565b6001600160a01b031660009081526003602052604090205490565b3480156101f657600080fd5b506100ef610742565b34801561020b57600080fd5b5061012561021a3660046108fa565b610751565b34801561022b57600080fd5b5061014461023a366004610979565b60036020526000908152604090205481565b6100d36102d2565b34801561026057600080fd5b5061014461026f366004610994565b600460209081526000928352604080842090915290825290205481565b34801561029857600080fd5b506101446102a7366004610994565b6001600160a01b03918216600090815260046020908152604080832093909416825291909152205490565b33600090815260036020526040812080543492906102f19084906109dd565b909155505060405134815233907fe1fffcc4923d04b559f4d29a8bfc6cda04eb5b0d3c460751c2402c5c5cc9109c9060200160405180910390a2565b60606000805461033c906109f5565b80601f0160208091040260200160405190810160405280929190818152602001828054610368906109f5565b80156103b55780601f1061038a576101008083540402835291602001916103b5565b820191906000526020600020905b81548152906001019060200180831161039857829003601f168201915b5050505050905090565b60006103cc338484610765565b6040518281526001600160a01b0384169033907f8c5be1e5ebec7d5bd14f71427d1e84f3dd0314c0f7b2291e5b200ac8c7c3b9259060200160405180910390a350600192915050565b6001600160a01b0383166000908152600360205260408120548211156104925760405162461bcd60e51b815260206004820152602760248201527f574554483a3a7472616e73666546726f6d3a2062616c616e636520696e737566604482015266199a58da595b9d60ca1b60648201526084015b60405180910390fd5b6001600160a01b03841633148015906104d057506001600160a01b038416600090815260046020908152604080832033845290915290205460001914155b15610593576001600160a01b038416600090815260046020908152604080832033845290915290205482111561055a5760405162461bcd60e51b815260206004820152602960248201527f574554483a3a7472616e7366657246726f6d3a616c6c6f77616e636520696e736044820152681d59999a58da595b9d60ba1b6064820152608401610489565b6001600160a01b03841660009081526004602090815260408083203384529091528120805484929061058d908490610a30565b90915550505b6001600160a01b038416600090815260036020526040812080548492906105bb908490610a30565b90915550506001600160a01b038316600090815260036020526040812080548492906105e89084906109dd565b92505081905550826001600160a01b0316846001600160a01b03167fddf252ad1be2c89b69c2b068fc378daa952ba7f163c4a11628f55a4df523b3ef8460405161063491815260200190565b60405180910390a35060019392505050565b336000908152600360205260409020548111156106b85760405162461bcd60e51b815260206004820152602a60248201527f73656e6465722062616c616e636520696e73756666696369656e7420666f72206044820152691dda5d1a191c985dd85b60b21b6064820152608401610489565b33600090815260036020526040812080548392906106d7908490610a30565b9091555050604051339082156108fc029083906000818181858888f19350505050158015610709573d6000803e3d6000fd5b5060405181815233907f7fcf532c15f0a6db0bd6d0e038bea71d30d808c7d98cb3bf7268a95bf5081b659060200160405180910390a250565b60606001805461033c906109f5565b600061075e338484610415565b9392505050565b6001600160a01b0383166107c75760405162461bcd60e51b8152602060048201526024808201527f45524332303a20617070726f76652066726f6d20746865207a65726f206164646044820152637265737360e01b6064820152608401610489565b6001600160a01b0382166108285760405162461bcd60e51b815260206004820152602260248201527f45524332303a20617070726f766520746f20746865207a65726f206164647265604482015261737360f01b6064820152608401610489565b6001600160a01b0383811660008181526004602090815260408083209487168084529482529182902085905590518481527f8c5be1e5ebec7d5bd14f71427d1e84f3dd0314c0f7b2291e5b200ac8c7c3b925910160405180910390a3505050565b600060208083528351808285015260005b818110156108b65785810183015185820160400152820161089a565b818111156108c8576000604083870101525b50601f01601f1916929092016040019392505050565b80356001600160a01b03811681146108f557600080fd5b919050565b6000806040838503121561090d57600080fd5b610916836108de565b946020939093013593505050565b60008060006060848603121561093957600080fd5b610942846108de565b9250610950602085016108de565b9150604084013590509250925092565b60006020828403121561097257600080fd5b5035919050565b60006020828403121561098b57600080fd5b61075e826108de565b600080604083850312156109a757600080fd5b6109b0836108de565b91506109be602084016108de565b90509250929050565b634e487b7160e01b600052601160045260246000fd5b600082198211156109f0576109f06109c7565b500190565b600181811c90821680610a0957607f821691505b60208210811415610a2a57634e487b7160e01b600052602260045260246000fd5b50919050565b600082821015610a4257610a426109c7565b50039056fea264697066735822122030105fcd6659bf0657b57b35fbe197458368ab0a95c133ea2fbde996a515e01164736f6c634300080b0033",
  "devdoc": {
    "kind": "dev",
    "methods": {
      "allowance(address,address)": {
        "params": {
          "owner": "The address of the account which owns the tokens to be spent",
          "spender": "The address of the account which may transfer tokens"
        },
        "returns": {
          "_0": "The number of tokens allowed to be spent (-1 means infinite)"
        }
      },
      "approve(address,uint256)": {
        "details": "This will overwrite the approval amount for `spender`  and is subject to issues noted [here](https://eips.ethereum.org/EIPS/eip-20#approve)",
        "params": {
          "amount": "The number of tokens that are approved (-1 means infinite)",
          "spender": "The address of the account which may transfer tokens"
        },
        "returns": {
          "_0": "Whether or not the approval succeeded"
        }
      },
      "balanceOf(address)": {
        "params": {
          "owner": "The address from which the balance will be retrieved"
        },
        "returns": {
          "_0": "The balance"
        }
      },
      "totalSupply()": {
        "returns": {
          "_0": "The supply of tokens"
        }
      }
    },
    "version": 1
  },
  "userdoc": {
    "kind": "user",
    "methods": {
      "allowance(address,address)": {
        "notice": "Get the current allowance from `owner` for `spender`"
      },
      "approve(address,uint256)": {
        "notice": "Approve `spender` to transfer up to `amount` from `src`"
      },
      "balanceOf(address)": {
        "notice": "Gets the balance of the specified address"
      },
      "totalSupply()": {
        "notice": "Get the total number of tokens in circulation"
      }
    },
    "version": 1
  },
  "storageLayout": {
    "storage": [
      {
        "astId": 29360,
        "contract": "src/WETH.sol:WETH",
        "label": "_name",
        "offset": 0,
        "slot": "0",
        "type": "t_string_storage"
      },
      {
        "astId": 29362,
        "contract": "src/WETH.sol:WETH",
        "label": "_symbol",
        "offset": 0,
        "slot": "1",
        "type": "t_string_storage"
      },
      {
        "astId": 29365,
        "contract": "src/WETH.sol:WETH",
        "label": "_decimals",
        "offset": 0,
        "slot": "2",
        "type": "t_uint8"
      },
      {
        "astId": 29369,
        "contract": "src/WETH.sol:WETH",
        "label": "_balanceOf",
        "offset": 0,
        "slot": "3",
        "type": "t_mapping(t_address,t_uint256)"
      },
      {
        "astId": 29375,
        "contract": "src/WETH.sol:WETH",
        "label": "_allowance",
        "offset": 0,
        "slot": "4",
        "type": "t_mapping(t_address,t_mapping(t_address,t_uint256))"
      }
    ],
    "types": {
      "t_address": {
        "encoding": "inplace",
        "label": "address",
        "numberOfBytes": "20"
      },
      "t_mapping(t_address,t_mapping(t_address,t_uint256))": {
        "encoding": "mapping",
        "key": "t_address",
        "label": "mapping(address => mapping(address => uint256))",
        "numberOfBytes": "32",
        "value": "t_mapping(t_address,t_uint256)"
      },
      "t_mapping(t_address,t_uint256)": {
        "encoding": "mapping",
        "key": "t_address",
        "label": "mapping(address => uint256)",
        "numberOfBytes": "32",
        "value": "t_uint256"
      },
      "t_string_storage": {
        "encoding": "bytes",
        "label": "string",
        "numberOfBytes": "32"
      },
      "t_uint256": {
        "encoding": "inplace",
        "label": "uint256",
        "numberOfBytes": "32"
      },
      "t_uint8": {
        "encoding": "inplace",
        "label": "uint8",
        "numberOfBytes": "1"
      }
    }
  }
}